:020000040800F2
:1000000090330020CD020008E54100080D3F0008B4
:10001000A9410008F51E00085D4600080000000028
:100020000000000000000000000000003502000891
:10003000E92100080000000079020008DD42000804
:10004000E7020008E7020008E7020008E7020008EC
:10005000E7020008E7020008E7020008E7020008DC
:10006000E7020008E7020008E7020008E7020008CC
:10007000E7020008E7020008E7020008E7020008BC
:10008000E7020008E7020008E7020008E7020008AC
:1000900051460008E7020008E7020008E7020008EE
:1000A000E7020008E7020008E7020008E70200088C
:1000B000E7020008E702000885430008E70200089D
:1000C000E7020008E7020008E7020008E70200086C
:1000D000E70200080D460008E7020008E7020008F2
:1000E000E7020008E7020008E702000800F002F853
:1000F00000F090F80AA090E8000C82448344AAF132
:100100000107DA4501D100F085F8AFF2090EBAE82F
:100110000F0013F0010F18BFFB1A43F0010318473B
:100120002065000040650000103A24BF78C878C1FF
:10013000FAD8520724BF30C830C144BF04680C60ED
:10014000704700000023002400250026103A28BF35
:1001500078C1FBD8520728BF30C148BF0B60704739
:100160006E2900F00382702900F04D83662906F0A5
:100170003481652906F03181672906F02E816129D5
:1001800006F02D8103681B0A28BF41F08001692910
:1001900000F0B081642900F0AD81752900F0AA81DA
:1001A0006F2900F0DA82782900F01983E92900F03C
:1001B0007582E42900F07282F52900F06F82EF2940
:1001C00000F0D782F82900F018830368DB0928BF04
:1001D00041F08001632901F06F80732901F0748080
:1001E000E32901F07F80F32901F08480002070472B
:1001F0001FB501F0D1F804000020002105F018FF20
:10020000401C60600020002105F0FCFEE0601FBD86
:1002100010B510BD01F092F81146FFF7E9FF04F0A8
:1002200077FA01F06FF903B4FFF7F2FF03BC01F0B6
:10023000B7F90000224B19680868B0E8F00F80F3A6
:100240000988BFF36F8F4FF0000080F311884EF0E4
:100250000D0E70470000000006480068006880F33B
:10026000088862B661B6BFF34F8FBFF36F8F00DFB0
:1002700000BF00BF08ED00E0EFF30980BFF36F8F10
:100280000F4B1A6820E9F00F106008B54FF05000CE
:1002900080F31188BFF34F8FBFF36F8F05F01CF908
:1002A0004FF0000080F31188BDE808401968086825
:1002B000B0E8F00F80F30988BFF36F8F704700BF7D
:1002C00014000020EFF305807047000009488047C4
:1002D00009480047FEE7FEE7FEE7FEE7FEE7FEE728
:1002E000FEE7FEE7FEE7FEE704480549054A064B40
:1002F0007047000081430008ED000008902D0020A9
:1003000090330020902F0020902F00207CB51D46B8
:1003100016460C00009001D02044401E074B7B4441
:100320002A4669460190304600F039F905461CB16D
:100330000020694600F046F928467CBDAD02000069
:10034000032A40F2308010F0030C00F0158011F801
:10035000013BBCF1020F624498BF11F801CB00F8D9
:10036000013B38BF11F8013BA2F1040298BF00F82D
:1003700001CB38BF00F8013B11F0030300F01283FA
:10038000083AC0F0088051F8043B083A51F804CB11
:10039000A0E80810F5E7121D5CBF51F8043B40F8D7
:1003A000043BAFF30080D20724BF11F8013B11F8E2
:1003B00001CB48BF11F8012B24BF00F8013B00F826
:1003C00001CB48BF00F8012B704702F0FF0343EA5E
:1003D000032242EA024200F019BB4FF0000200B5CE
:1003E000134694469646203922BFA0E80C50A0E858
:1003F0000C50B1F12001BFF4F7AF090728BFA0E806
:100400000C5048BF0CC05DF804EB890028BF40F8D1
:10041000042B08BF704748BF20F8022B11F0804F13
:1004200018BF00F8012B704770477047704770B5D0
:10043000044685690068C10601D5302600E0202603
:10044000C00707D070BDD4E9012130469047206A2B
:10045000401C20626D1EF6D570BD70B504468569DE
:100460000078C00707D170BDD4E901212020904752
:10047000206A401C20626D1EF6D570BD09684A05D1
:1004800001D540B27047C905FCD500B27047096874
:100490004A0501D5C0B27047C905FCD580B2704786
:1004A00070B50C460546012A05D02878800600D58F
:1004B000EA69002302E0012305E05B1C934202D2BB
:1004C000E05C0028F9D1A869E618C01AA861286A7A
:1004D000184428622846FFF7AAFF04E0D5E9012165
:1004E00014F8010B9047B442F8D32846FFF7B5FF44
:1004F00070BD00002DE9F041064600241068752902
:10050000314616A510D0FFF7B9FF002802DA4042A5
:1005100013A507E031688A0701D512A502E0490753
:1005200004D511A5012401E0FFF7B1FF00210A2243
:1005300006F1240709E0B0FBF2FCB0FBF2F302FB8A
:100540001C00303078541846491C0028F3D123464B
:100550002A463046BDE8F04100F0BDBA0000000078
:100560002D0000002B000000200000001168026830
:10057000006A530501D508700AE0D30501D508804B
:1005800006E0130603D5C217C1E9000200E00860C7
:100590000120704701694A1C02610878704700B564
:1005A0008FB0CDE901310021059105497944CDE9AC
:1005B00003101146684600F031F90FB000BD00008D
:1005C000E5FFFFFF0A6802F8010B0A607047D1E9F6
:1005D00000239A4202D2531C0B6010707047000037
:1005E0002DE9FF5F15468A460446DFF8AC80F844E3
:1005F0000027D8E900103E46CDE9001010E03AF897
:1006000016106A4602A800F079FE411C07D0217836
:10061000890603D5E269391891420DD80744761C42
:100620002078800602D5E069B84205DDAE42E6DBFF
:100630003AF816000028E2D1A069C01BA06120464C
:10064000FFF7F5FED8E90010CDE90010002017E013
:100650003AF818106A4602A800F050FEB0F1FF3FC9
:1006600081460BD000250DF1080B05E0D4E90121EE
:100670001BF8050090476D1C4D45F7D308F10100AC
:10068000B0428046E4DB206A384420622046FFF70F
:10069000E4FEBDE8FF9F0000325F00002DE9F0415D
:1006A0008046D21D22F007020025D2E90002F5297A
:1006B00015A614D0011E72F1000106DA0023D0EB5A
:1006C000030063EB020211A608E0D8F800108B07C4
:1006D00001D50FA602E0490701D50EA60125114656
:1006E000002408F1240704E000F0B0F930323A5554
:1006F000641C50EA0102F7D12B463246214640469F
:10070000BDE8F04100F0E7B9000000002D00000056
:100710002B0000002000000030B4002100F1240470
:1007200008E002F00705D208303542EA4372DB08E0
:100730006554491C52EA0305F3D10468002310A252
:10074000250707D5A40600D421B1C46901230DA251
:10075000641EC46130BC00F0BEB910B50446214629
:100760001068FFF794FE02462046BDE810400023C3
:10077000D2E7D21D22F00701D1E90023CCE7000027
:100780000000000030000000F0B40D4601880905AB
:1007900002D5214C7C4402E01F4C7C440E340021E5
:1007A00000F1240608E002F00F071209E75D42EAB3
:1007B00003721B097754491C52EA0307F3D10278EC
:1007C0000023120704D5702D06D009B1022311347D
:1007D0002246F0BC00F07FB901231034F8E770B571
:1007E00004460D4621461068FFF751FE0246294691
:1007F0002046BDE870400023C6E7D21D22F0070363
:10080000D3E90023C0E70368126843F020030360C4
:100810000823C3610023B7E7945D00002DE9F05F72
:10082000894604464FF0000ADFF874B1FB44C0F873
:1008300020A02046E1688847002874D0252806D0EB
:10084000D4E901219047206A401C2062F1E700268C
:100850005F462046E16888472028054607DB312DA2
:1008600005D2781910F8200C08B10643F1E7B0075B
:1008700001D526F00406C4F81CA00027C4F818A06F
:100880002A2D09D0284603F023FF38B304EB87084C
:10089000303DC8F8185019E059F8041B204604EB05
:1008A00087029161E1688847012F054618D1E06908
:1008B000002820DA26F020061DE0D8F8180000EB0A
:1008C000800005EB40003038C8F818002046E16889
:1008D0008847054603F0FCFE0028EED1012F0AD020
:1008E0002E2D08D12046E16888477F1C0546022F3F
:1008F00046F02006C4DBA069002803DA404246F037
:100900000106A061F00701D026F010066C2D0BD077
:10091000682D09D04C2D39D06A2D35D0742D35D0A5
:100920007A2D33D016E038E0E1682F46204688471C
:10093000B842054609D16C2F26D04FF48060E1689B
:10094000064320468847054604E06C2F1AD04FF432
:10095000807006430DB3A5F14100192802D8203557
:1009600046F400664A462946204626604E46FFF772
:10097000F7FB80B101280BD0F61D26F0070000F12F
:10098000080956E74020E4E78020D8E70020D6E7B2
:1009900006F104094DE7284652E7206ABDE8F09FBA
:1009A000245D000010B5203AC0F00B80B1E818506B
:1009B000203AA0E81850B1E81850A0E81850BFF449
:1009C000F5AF5FEA027C24BFB1E81850A0E81850E8
:1009D00044BF18C918C0BDE810405FEA827C24BF3C
:1009E00051F8043B40F8043B08BF7047D20728BFCA
:1009F00031F8023B48BF11F8012B28BF20F8023B19
:100A000048BF00F8012B70474FF000020429C0F0E6
:100A1000128010F0030C3FF4E2ACCCF1040CBCF1FA
:100A2000020F18BF00F8012BA8BF20F8022BA1EB82
:100A30000C01FFF7D4BC5FEAC17C24BF00F8012B96
:100A400000F8012B48BF00F8012B704730B5B0F11A
:100A50000A024FEA900E71F100034EEA817EB0EB7C
:100A60000E0061EB91014FEA101E4EEA017E10EB81
:100A70000E0041EB11114FEA102E4EEA016E10EB01
:100A80000E0041EB11214FEA104E4EEA014E10EBE1
:100A90000E0041EB1141401841F100014FEAD00036
:100AA00040EA41704FEAD10110EB80054FEA810422
:100AB00044EA907444EB01046D1944EB0404521BA6
:100AC000A3414FF0000348BF0A3200D530BD401C9F
:100AD00041F1000130BD2DE9F0470D46994692469F
:100AE000044600F124080168880604D5E06921F075
:100AF0001001216000E00120A84201DD471B00E059
:100B00000027A1697A1902EB0900081AA061207870
:100B1000C00602D42046FFF78AFC002608E0D4E98C
:100B200001211AF806009047206A401C761C2062BA
:100B30004E45F4DB2078C0060AD52046FFF777FC47
:100B400006E0D4E9012130209047206A401C206251
:100B5000381EA7F10107F4DC07E0D4E9012118F8F9
:100B600005009047206A401C2062281EA5F101055F
:100B7000F3DC2046FFF771FC2078000602D5022046
:100B8000BDE8F0870120FBE770472DE9FF4F0C46D9
:100B90001E464FF0FF378BB0D2E90001DDF86080D0
:100BA0000A908A46C1F30A5505B93D460021084618
:100BB0004FF00000BAF1000F00F4400005DA00EB3E
:100BC00080004FF4400101EA50004FEA9059B9F11A
:100BD000010F00DDB9460A9850EA4A000ED044F6EB
:100BE0001050A5F2FF3545432F14B8F1000F1ED069
:100BF0007542291E1EDDC9F100021CE0B8F1010F8B
:100C00004FF0000001D0302103E0F24305E0215411
:100C1000401CB042FBDB30460022002121540B99DE
:100C2000C1F80880C1E900200FB0BDE8F08FBD1BFE
:100C30006D1CDEE74A4600DA694206A800F0F0FBC8
:100C400006AB93E8070003AB83E8070050460A9918
:100C500000F0ADFC8DE80700A0F500501F380090B3
:100C60000398002D0ADD42F21F014A460844002382
:100C700003A90390684600F016FF09E0A0F50050B4
:100C80004A461F38002303A90390684600F020FF5E
:100C90008DE807000004000C03D04FF0FF3041083E
:100CA00000E01046B8F1000F03D000220092154674
:100CB0001EE0751E05D4FFF7C9FE303262556D1E69
:100CC000F9D5B3460122084302D000227F1C04E07C
:100CD0002078302801D100227F1E002A099784D075
:100CE0001DE0112D07DAFFF7B1FE303262556D1CA1
:100CF00050EA0102F5D1084302D00098C8B10EE0D5
:100D00000021681E05E0235C625C63542254401E8F
:100D1000491C8142F7DBAB46A81B401E099000200E
:100D200004F80B000B98099AC0F80880C0E9002B62
:100D30007AE711264FF0000857E72DE9F04F884673
:100D40000446D21D22F0070191B0D1E90001CDE99E
:100D50000A0103F099FC02460B98C00F01D02D2028
:100D600007E02068810701D52B2002E0202101EA5D
:100D7000C000032A099001D0072A05DB034641463B
:100D8000204600F00DFB0BE12078800601D5E069DC
:100D900000E00620B8F1650F814606D0B8F1660F75
:100DA00018D0B8F1670F70D131E00020B9F1110F00
:100DB000009001DB112301E009F101030AAA01A956
:100DC0000CA8FFF7E2FEDDE90C70002609F1010531
:100DD000834647E001204B4600904FF000470AAAA7
:100DE00001A90CA8FFF7D1FEDDE90DB00C995D4615
:100DF000002610B909F101000D18B9EB050003D464
:100E0000C0F1FF3609F10105A5EB09002BE0B9F1AE
:100E1000010F01DA4FF001090020B9F1110F009024
:100E2000484601DD112300E003460AAA01A90CA8E7
:100E3000FFF7ABFEDDE90C704D46002683462078B7
:100E400000070AD4AB4500DA5D4601A8012D04DD98
:100E5000411911F8011C302907D04F4502DA17F16A
:100E6000040F04DA012082460FE06D1EEEE7002F2A
:100E700002DCED1B3E4403E0781CA84200DD7D1C33
:100E8000B81B00F1010A4FF000472078000703D497
:100E9000AA4501DB4FF0FF3A0021B7F1004F0DF1F9
:100EA00043088DF8431024D002202B23002F01DAB1
:100EB0007F422D230A21021EA0F1010000DC5FB158
:100EC00097FBF1FC97FBF1F201FB1C7C17460CF140
:100ED000300C08F801CDEEE7A8F10100037021887D
:100EE000090501D5452100E06521A0F1010800F8C0
:100EF000011C09980FA9A1EB0807FF1D00B10120F3
:100F0000411901EBEA70A1693844081A401EA0613A
:100F10002078C00602D42046FFF789FA099828B144
:100F2000D4E901219047206A401C20622078C00645
:100F300022D52046FFF77BFA1EE0002E04DBB345E6
:100F400002DD01A8805D00E03020D4E90121904756
:100F5000206A401C2062761CAAF101005FEA000AA8
:100F60000AD100F019FAC0680168405CD4E9012197
:100F70009047206A401C2062281EA5F10105DCDC98
:100F800007E0D4E9012118F8010B9047206A401CC2
:100F90002062381EA7F10107F3DC2046FFF75DFA57
:100FA000032011B041E600002DE9F04F04460D4644
:100FB000D21D22F0070089B0D0E900974846394693
:100FC00003F062FB0246F80F01D02D2307E02068F2
:100FD000810701D52B2302E0202101EAC0038DF80F
:100FE00020300BB1012000E00020032A824601D00E
:100FF000072A04DB2946204600F0D2F93FE1207899
:10100000800601D40D2500E0E569C7F30A560D2DD1
:1010100049DA00214FEA175B08464FF00000002F25
:1010200000F4400007DA00EB80004FF4400100EBD1
:10103000D07001EA60008115012901DD4FF0FF3118
:1010400000224FEA850CBCF1180F06D31346ACF111
:1010500018004FF08052C24003E04FF4801323FA8F
:101060000CF30CF10C0CBCF1200F04D3ACF1200CF0
:1010700009FA0CF001E007FA0CF000294FF00048E3
:1010800001DD18B90FE00ED140450CD319EB020970
:101090005F4121B9404502D19F4329EA0209BBEBD8
:1010A000175F00D0761C2088000502D57B48784465
:1010B00002E07A487844193808AA302302F80A3046
:1010C000037C0AF10101002E0AF1020A53546A4618
:1010D00002DC4FF0300101E04FF031014FF0010828
:1010E0008DF8001002D0A6F2FF3603E059EA47015E
:1010F00000D06B4E002D02DC2178090704D54FF09B
:1011000002082E218DF80110C44600210BE0C7F320
:1011100003433F01C35C491C6D1E02F808300529DA
:1011200008F1010801DA002DF1DC00210CE000EBF0
:101130001973491C1B786D1E082902F808304FEA04
:10114000091908F1010801DA002DF0DC21688B068D
:1011500002D516E0A8F10108E04505DD02EB080321
:1011600013F8013C302BF5D0B8F1000F09DD02EB8C
:10117000080313F8013C2E2B03D1090701D4A8F171
:101180000108002D05DD3E2102F808106D1E08F152
:101190000108407C002E02F8080008F1010804DA7A
:1011A0002D20764202F8080002E02B2002F8080009
:1011B0000A214FF47A70864208F101080BDB96FB96
:1011C000F0F3303302F8083096FBF0F308F1010831
:1011D00000FB136601E0642E0CDB642096FBF0F349
:1011E000303302F8083096FBF0F308F1010800FBF9
:1011F000136601E00A2E06DB96FBF1F0303002F8B0
:10120000080008F1010896FBF1F001FB1060303096
:1012100002F80800A16908F1010808EB050202EBD9
:101220000A00081AA0612078C00602D42046FFF701
:10123000FEF8216A08AE01EB0A00206204E0D4E95E
:10124000012116F8010B9047BAF1010AF7D2207874
:10125000C00602D52046FFF7EAF86E4609E016F808
:10126000010B3E280FD0D4E901219047206A401C91
:101270002062B8F10108F2D22046FFF7EEF809B07B
:101280000320BDE8F08F206A2844206203E0D4E9FF
:101290000121302090476D1EEBD3F8E7C6540000C3
:1012A00002FCFFFF10B5436913B1AFF3008001E00A
:1012B000FFF7F6F8012010BD127800F124010A7042
:1012C00000224A700122EDE711684FF0FF32E9E792
:1012D00010B5436913B1AFF3008001E0FFF780F967
:1012E000012010BD128800F1240182840022C284F2
:1012F0000122EDE711684FF0FF32E9E770B51646BD
:101300000C46054600F040F8036893F801010128F7
:1013100006D0FF2C0FD8185D68B101202C7070BD6D
:10132000D3F807013246214603F207130344284647
:10133000BDE8704018474FF0FF3070BD754600F0B3
:10134000EBF8AE4605006946534620F00700854697
:1013500018B020B5FEF7C8FFBDE820404FF00006EA
:101360004FF000074FF000084FF0000B21F007018D
:10137000AC46ACE8C009ACE8C009ACE8C009ACE8D0
:10138000C0098D467047000010B500F005F8001D3B
:1013900010BD00BF9D4C000000487047502D00203C
:1013A0002DE9F0411F46044603260168072A01F48F
:1013B000006004DB08B116A505E016A503E008B13E
:1013C00015A500E015A521F010002060A069C01E41
:1013D000A0610FB1401EA0612046FFF728F84FB171
:1013E000D4E9012138469047206A401C2062C01C85
:1013F000206206E0206AFAE7D4E9012115F8010B22
:101400009047761EF8D22046FFF727F8BDE8F08116
:101410004E414E006E616E00494E4600696E660098
:101420002DE9F047814616468AB0354878440DC804
:101430008DE80D0032487844801C03AC0DC884E868
:101440000D0041F69B300844372190FBF1F290FBF0
:10145000F1F5A5F1800501FB12041B3C02D56442A5
:10146000012000E00020DFF898A080460027FA4421
:10147000AAF1BE0A0EE0E0070AD03246684607EB42
:10148000470101230AEB810100F022FB8DE80700F0
:1014900064107F1C002CEED1194F7F44AE3F19E041
:1014A000E80715D007EB04100DF1180A90E80E00BC
:1014B0008AE80E00C068F04201D1981908903246BF
:1014C000012306A903A800F003FB03AB83E8070090
:1014D0006D10641C002DE3D14FF0010332466946C4
:1014E000B8F1000F03A802D000F0DDFA01E000F02F
:1014F000EFFAC9E90001C9F808200AB0BDE8F08791
:10150000D851000010B50446AFF300802046BDE876
:101510001040FEF788BE000000487047302D0020C4
:101520004FF0013C50F8042B51F8043B9A4221D172
:10153000A2EB0C03934313EACC1317D150F8042BFE
:1015400051F8043B9A4215D1A2EB0C03934313EAE2
:10155000CC130BD150F8042B51F8043B9A4209D11B
:10156000A2EB0C03934313EACC13DBD04FF0000043
:10157000704700BFD01A01BAB1FA81F101F0180129
:1015800022FA01F0CB40C1F12001DBB2C0B2C01A97
:101590002CFA01F3D11A914311EAC311E6D1704735
:1015A00001491820ABBEFEE72600020070475FEA43
:1015B000400C08BF91F0000F4FEA8C234FEAC12284
:1015C00043EA51514FEA1C5018BF00F5F0404FEA72
:1015D000300018BF41F000415FEA6C5C00F02980E8
:1015E000BCF1FF3F08BF40F080407047130C06BFBE
:1015F00012044FF0100C4FF0000C130E04BF120237
:101600000CF1080C130F04BF12010CF1040C930F22
:1016100004BF92000CF1020CD30F04BF52000CF176
:10162000010C11464FF00002A0F11F00A0EB0C00CE
:10163000704711F0004F08BF704731F000413FF490
:10164000D5AF0B0C06BF09044FF0100C4FF0000C87
:101650000B0E04BF09020CF1080C0B0F04BF0901AB
:101660000CF1040C8B0F04BF89000CF1020CCB0FA2
:1016700004BF49000CF1010CCCF12003A0EB0C00DD
:1016800022FA03F302FA0CF241EA030100F101002D
:10169000704720F07F4C80EA030023F07F47ACEBDB
:1016A000070303F57C5300F0004003F1FF032DE92D
:1016B00080494FEA154B09B44FEA144325EA0B4E13
:1016C00024EA03480FF2042606EB132749083E7864
:1016D0005FEA320203FB0667C7F5000707FB06F661
:1016E0004FEA54374FEAD64606F1020607FB066C6E
:1016F000CCF1005C4FEA1C472CEA074C07FB06F4D0
:101700000CFB06F504EB15464FEA961634BF002095
:101710004FF000404FEAD13706FB07FC4FEA1C4C64
:101720000CFB0BF7D21B03FB0CF761EB07010CFB67
:101730000EF7B0EB074072EB17420CFB08F734BF13
:10174000A2EB0742B2EB074261EB17414FEA0C44B0
:101750004FEA910706FB07FC4FEA1C4C0CFB0BF70A
:10176000B0EBC74072EB573203FB0CF734BFA2EB70
:10177000C742B2EBC74261EB57310CFB0EF7B0EB3F
:10178000C70072EB57720CFB08F734BFA2EBC7021D
:10179000B2EBC70261EB5771039F4FEA816141EAE7
:1017A000921104EBCC044FEAD1374FEA826206FB78
:1017B00007FC42EA90124FEA80604FEA1C4C0CFB97
:1017C0000BF7D21B03FB0CF761EB07010CFB0EF7C9
:1017D000B0EB074072EB17420CFB08F734BFA2EBEB
:1017E0000742B2EB074261EB17414FEA8C554FEAD3
:1017F000910704EB9C2406FB07FC4FEA1C4C0CFBF6
:101800000BF7B0EBC74072EB573203FB0CF734BF5A
:10181000A2EBC742B2EBC74261EB57310CFB0EF7AC
:10182000B0EBC70072EB57720CFB08F734BFA2EBAA
:10183000C702B2EBC70261EB577115EB4C254FEABB
:10184000816141EA92114FEA82624FEAD13742EA5E
:10185000901206FB07FC44F100044FEA80604FEA57
:101860001C4C0CFB0BF7D21B03FB0CF761EB0701C5
:101870000CFB0EF7B0EB074072EB17420CFB08F7BE
:1018800034BFA2EB0742B2EB074261EB174115EB05
:101890001C154FEA813141EA92414FEA823242EA15
:1018A00090424FEA80304FEA0C7644F1000448EA57
:1018B00003434EEA0B484FF0000EB2EB080C71EBFD
:1018C000030724BF624639464EEB0E0E4FF0000B65
:1018D0000018524149414BEB0B0BB2EB080C71EB7A
:1018E00003077BF1000B24BF624639464EEB0E0E18
:1018F0004FF0000B0018524149414BEB0B0BB2EB80
:10190000080C71EB03077BF1000B24BF62463946DC
:101910004EEB0E0E51EA020718BF46F0010616EB19
:101920000E7655F1000254F1000103D5BDE889019E
:10193000BDE80088BDE88901BDE80048B6195241FC
:1019400041EB0101A3F10103704780807F7E7D7C24
:101950007B7A7978777676757473727171706F6E41
:101960006E6D6C6C6B6A6A696868676666656464EC
:10197000636362616160605F5F5E5E5D5D5C5C5B76
:101980005B5A5A59595858575756565555555454E5
:10199000535352525251515050504F4F4F4E4E4D43
:1019A0004D4D4C4C4C4B4B4B4A4A4A49494948488F
:1019B00048474747474646464545454444444443CF
:1019C00043434342424242414141002B9C4630D472
:1019D00077002BD01CB54FEA370703B44FF0100047
:1019E0004FF01001BAF1000F06D0BCF1000FDCBFC0
:1019F00040F0080040F008014FF000000FBCBDE8C7
:101A000010400BF1010BBBF1010F08BF5FEA170794
:101A100022BF12F1010211F101014FF0004143F127
:101A2000000300F0004043EA00007047F9D3570874
:101A3000D0E746EA064613F1400F4FEA16461FDD8F
:101A400013F1200FDFBF16430A46002120335B420B
:101A5000BED0C3F1200746EA064602FA07F74FEA6E
:101A6000164646EA0706C3F1200722FA03F201FAF6
:101A700007F721FA03F14FF0000342EA0702A7E754
:101A800046EA020646EA06464FEA164646EA0106D6
:101A9000BCBF46EA0646360C4FF000034FF000028A
:101AA0004FF0000194E72DE9804C9A46934670B4BC
:101AB00091E8380007C831EA400C48BF34EA430CCB
:101AC00003D5FFF7E6FDFFF780FFF0BCBDE8008C13
:101AD0002DE9804C9A46934670B491E8380007C8C7
:101AE00010F0804F08BF13F0804F03D100F005F8CD
:101AF000FFF76BFFF0BCBDE8008C20F07F4780EA69
:101B0000030023F07F4C07EB0C03A3F57C5300F09C
:101B10000040A3F1FE0392F0000F00F0B38095F0B7
:101B2000000F00F077802DE901494FEA11404FEA9C
:101B3000144621EA004800FB06FC24EA064708FB9D
:101B400006F607FB08F800FB07F718EB06484CEB16
:101B5000164C4FEA124B18EB07484FEA15464CEB70
:101B6000174022EA0B4E0BFB06FC25EA06470EFB4C
:101B700006F607FB0EFE0BFB07F71EEB064E4CEBC3
:101B8000164C4FF000061EEB074E4CEB174B18EBB4
:101B90000B0840F1000018EB0E0B58EB000840F169
:101BA00000008F1A4FF000013CBFC943661B14BFF1
:101BB000B5EB040C00213CBFC943F61B4FEA1744A8
:101BC0004EEA8E0E27EA04454FEA1C4704FB0762E3
:101BD0002CEA074C05FB07F70CFB05F604FB0CFC95
:101BE00016EB074642EB174216EB0C4642EB1C4243
:101BF0001BEB060658EB0202414146EA9E0601D560
:101C0000BDE80189B619524141EB0101A3F101037D
:101C1000BDE801894FEA14454FEA114724EA054619
:101C200021EA074C05FB07F406FB07F70CFB06F15E
:101C300005FB0CFC11EB074144EB17444FEA12473C
:101C400011EB0C4144EB1C4422EA074C05FB07F264
:101C500006FB07F70CFB06F605FB0CFC16EB07462C
:101C600042EB174216EB0C4642EB1C456A1854F146
:101C7000000148BF7047B619524141EB0101A3F181
:101C80000103704795F0000F37D04FEA11424FEA39
:101C9000144721EA024624EA074C02FB07F106FB3F
:101CA00007F70CFB06F402FB0CFC14EB074441EBBA
:101CB00017414FEA154714EB0C4441EB1C4125EA50
:101CC000074C02FB07F506FB07F70CFB06F602FBC9
:101CD0000CFC16EB074645EB174516EB0C4645EB9F
:101CE0001C42121951F1000148BF7047B619524108
:101CF00041EB0101A3F1010370474FEA14454FEA9C
:101D0000114724EA054621EA074C05FB07F106FBCB
:101D100007F70CFB06F24FF0000605FB0CFC12EB7C
:101D2000074241EB174112EB0C4251EB1C4148BFFB
:101D30007047921841EB0101A3F1010370470000C5
:101D400070B5044600688168C943C90717D1816826
:101D500021F00101816001F06FF905460AE000BF42
:101D600001F06AF9401B022804D920688068C0434A
:101D7000C00706D020688068C043C007F0D00020AC
:101D800070BDA06A40F01000A062E06A40F001005F
:101D9000E062012070BD0000F8B500260446009600
:101DA00000688168C943C9072DD0816841F00101ED
:101DB0008160164816490068B0FBF1F000E0401E53
:101DC00000900028FBD101F037F9054616E000BF6E
:101DD00001F032F9401B022810D920688068C04306
:101DE000C0070BD0A06A40F01000A062E06A40F08B
:101DF0000100E06284F824600120F8BD206880685A
:101E0000C043C007E4D10020F8BD0000100000204E
:101E100040420F0001252A4FDFF8A8A086B04FF0FE
:101E2000060907244FF066366FF00B08CDF80090D6
:101E3000CDE901546946244800F046FA224800F0F2
:101E40001DFC0A21204800F07BFB052003F090FADE
:101E50001D4800F0B7FA04F032F932463B4604F070
:101E600041F904F0FBF8414604F0EDFACDE90240F7
:101E7000CDE900456946144800F026FA124800F002
:101E8000FDFB0A21104800F05BFB052003F070FA0F
:101E90000D4800F097FA04F012F932463B4604F080
:101EA00021F904F0DBF8414604F0CDFA0023049058
:101EB0001A4603A9DAF8000003F044FCB6E7000074
:101EC00066660A40FC000020040100200EB51823BD
:101ED000CDE900310290002302A1054803F0B1FED4
:101EE0000EBD0000524541445F41444300000000E4
:101EF000151E0008FEE70022026042608260C26098
:101F0000426101238361C361036202610A604A6026
:101F10008A60C1E903230A757047000008B5204CA8
:101F20000168DFF880902160416861608168A1608C
:101F3000C168E16001692161007D20754FF0FF3AC1
:101F4000A4F11008A9F11405154952461039286961
:101F500003F06AFD98F8002089F8002098F8012025
:101F600089F80120D8F80410404601B12160C16809
:101F700001B16160D8F8080000B12061002642F28A
:101F800010776B46074A0649686800F0D7FB10B126
:101F9000761CBE42F5DB00206861A861D4E7000032
:101FA000FC1A0020A00000203EB518240094CDE9C2
:101FB000011002A1044803F044FE3EBD5768726957
:101FC000745F43414E0000001D1F000870B50024DF
:101FD00000F05EF8134D04E0641CE4B2012002F04E
:101FE0007EFB0221284601F01DF8012803D0642C55
:101FF00014D2002407E0642CEED30FE0641CE4B29A
:10200000012002F06CFB0221284601F00BF80128A8
:1020100002D0642CF2D301E0642C01D3012070BD06
:10202000002070BD000801400EB50F4D002400BF18
:102030008DF804408DF8084002A901A800F09FF82F
:102040000028F5D19DF804009DF8081050EA01021F
:10205000EED08DF800008DF8011000231A46694675
:10206000286803F06FFBE3E7000100200EB517239B
:10207000CDE900310290002302A1044803F0E1FD04
:102080000EBD0000444854313100000029200008F2
:102090001FB5002001900220009001200290032033
:1020A00003906946014800F0CDFE1FBD00080140C5
:1020B0001FB5002002900220009001200190032013
:1020C000054C03906946204600F0BCFE0122022127
:1020D000204600F0ACFF1FBD000801401FB50020E6
:1020E000029002200090012001900320054C0390F3
:1020F0006946204600F0A6FE00220221204600F09C
:1021000096FF1FBD0008014070B50024144D04E087
:10211000641CE4B2012002F0E2FA0221284600F039
:1021200081FF012801D1642CF2D3002404E0641C57
:10213000E4B2012002F0D3FA0221284600F072FF37
:10214000012801D0642CF2D3282002F0C8FA022121
:10215000284600F067FF012800D0002070BD000075
:102160000008014070B5002004464006050EFFF748
:10217000CBFF641C2843E4B2082CF6D370BD2DE9D4
:10218000FC410D46064600F022F8FFF71FFF10B194
:102190000120BDE8FC8100246F46FFF7E3FF3855BE
:1021A000641CE4B2052CF8D39DF800109DF80100E2
:1021B0009DF803300A189DF8020003441A449DF864
:1021C00004309A4201D1297030700020E1E710B547
:1021D000FFF784FF142003F0CBF8FFF769FFBDE899
:1021E00010401E2002F07BBA704772B6FEE7000076
:1021F000F8B500250446009590F8240001280BD07E
:10220000012084F824002046FFF79AFD2046FFF7BE
:10221000C3FD060002D050E00220F8BDA06A20F401
:10222000885040F00200A062022000F0D5FF25494E
:102230000968B1FBF0F0400000E0401E009000286B
:10224000FBD12068816841F00801816000F0F4FE54
:10225000074608E000F0F0FEC01B0A2803D92068FA
:102260008068000715D4206880680007F2D42068D1
:10227000816841F00401816000F0DEFE074612E053
:1022800000F0DAFEC01B0A280DD9206880684007DC
:1022900009D5A06A20F0020040F01000A06284F886
:1022A00024500120F8BD206880684007E8D4A06A67
:1022B00020F0020040F00100A06284F82450304673
:1022C000F8BD000010000020F8B50024009490F83C
:1022D00024202546012A12D0012280F824204A68B1
:1022E0001F23072A0DD20668776B521E02EB82026B
:1022F00093409F430B6893401F43776319E002208C
:10230000F8BD06680D2A0AD2376BD21F02EB820293
:1023100093409F430B6893401F43376309E0F76A7C
:102320000D3A02EB820293409F430B6893401F4398
:10233000F7620A68072306680A2A0AD3F7680A3A86
:1023400002EB420293409F438B6893401F43F76028
:1023500008E0376902EB420293409F438B68934049
:102360001F4337610A68102A01D0112A20D1124B6D
:1023700002689A4217D193681B0219D4936843F4F8
:10238000000393600968102912D10C490C4A0968AE
:10239000B1FBF2F101EB8101490000E0491E00911F
:1023A0000029FBD104E0816A41F02001816201240F
:1023B00080F824502046F8BD002401401000002081
:1023C00040420F000068C06C704700002DE9F041EA
:1023D0004FF0000704003D467ED0A06A002628B9D1
:1023E000E66284F82460204600F07EF82046FFF77D
:1023F000A7FCA16AC90600D420B1A06A40F0100071
:10240000A06269E0A16A21F4885141F00201A16251
:102410006268E169237B0A4347EA43010A43A168F2
:102420004FF48077B94209D0012907D05FF000014D
:1024300094F814C0BCF1010F02D00AE03946F7E766
:10244000F3B1A36A43F02003A362E36A43F00103FC
:10245000E3622368D3F804C02CF4694C4CEA010C05
:10246000C3F804C021688B68DFF870C003EA0C036E
:1024700013438B60A168B9420BD0012909D00CE04D
:10248000DFF85CC0A3690CEB43330B4343F40061FA
:10249000DFE7218A0D05A5F580152168CB6A23F4B5
:1024A00070032B43CB62216889680E4B194091421F
:1024B00008D1E662A16A21F0020141F00101A162A6
:1024C000BDE8F081A06A20F0020040F01000A06298
:1024D000E06A40F00100E0620120F1E7FDF7E1FF72
:1024E00000E0FFFFFE0E1FFF00B585B00021009148
:1024F00001910291039100680E49884218D10E485B
:10250000816941F400718161816901F40071049174
:10251000816941F0040181618069694600F004002D
:1025200004904020009003200190044800F08AFCB1
:1025300005B000BD00240140001002400008014029
:102540002DE9F84300270D460446009700F074FD7E
:10255000804620688168C90508D5A06A40F020003F
:10256000A06284F824700120BDE8F8834168C905A1
:1025700003D4C06A10F4700F2AD0022000F02CFEA1
:102580003B490968B1FBF0F62068036939490B4201
:102590004FEA61014FEAA1121FD1C3684FEA611CE3
:1025A00013EA0C0F19D103690B4225D1C068104200
:1025B00022D1142023E0681C0AD02DB100F03CFD8C
:1025C000A0EB0800A84203D920680068800725D541
:1025D000206800688007EED52DE003690B4202D128
:1025E000C168114206D0026923490A4206D1C06877
:1025F000084203D1542002E0292000E0FC20464399
:10260000009816E0681C11D02DB100F015FDA0EB6C
:102610000800A8420AD90098B04207D2A06A40F048
:102620000400A06284F8247003209DE70098401CF9
:102630000090B042E6D321686FF012000860A06AF3
:1026400040F40070A06220688068C0F34240072810
:102650000CD1207B50B9A06A20F48070A062A06ADF
:10266000C00403D4A06A40F00100A06200207BE710
:1026700010000020244992244992240070B5044699
:1026800090F8240001280DD0012084F82400204671
:10269000FFF782FB02004FF0000005D084F8240011
:1026A000104670BD022070BDA16A40F2012399431B
:1026B00041F48071A1621F4D23681F49AB4218D1BC
:1026C0000E6816F4702F14D0A66A46F48016A6621F
:1026D0000E68760505D5A66A26F4005646F480569F
:1026E000A662A66AF6040AD5E66A26F00606E6623F
:1026F00006E0A66A26F48016A6625E68E9E7E06254
:1027000084F824006FF00200186020688368C3F327
:102710004243072B05D1A84208D1096811F4702F54
:1027200004D0816841F480118160B9E7816841F487
:10273000A001F9E70028014004240140F0B590F819
:1027400020500468A468012D05D0022D03D0416AF1
:1027500041F4802157E014F0406F01D1E5004FD5DE
:10276000C4F301640125A5401D608D684FF4C0735A
:102770009DB1CE6835434E6845EAC605066803EB51
:102780000417F5514FF4C275076805EB04150E697F
:102790007E51097D012905D009E00E88CD6845EA02
:1027A0004655EBE701684E5946F480764E51117953
:1027B000D579567941EA056195792D0445EA0625D2
:1027C00029434FF4C676056806EB0416A951117823
:1027D000D57841EA0561957852782D0445EA0222C0
:1027E00011434FF4C475026805EB0415515100689C
:1027F00003EB0411425842F0010242500020F0BDA8
:10280000416A41F4001141620120F0BD704770B58A
:1028100090F82040012C05D0022C03D0416A41F4ED
:10282000802128E0046809B32469A40720D04FF46C
:10283000D874056804EB01142D5915F00405956052
:1028400005682D591AD0ED08556005682C5904F01B
:102850000204D4604FF4DA74056804EB01142E59B5
:1028600006F00F06082E0CD308250DE0E468DCE71F
:10287000416A41F400114162012070BD6D0D156087
:10288000E3E72D5905F00F05156105682D59C5F3CE
:102890000725956105682C59240C54614FF4DC72AE
:1028A000046802EB0112A4581C700468A458240A9E
:1028B0005C700468A458240C9C700468A258120E22
:1028C000DA704FF4DE72046802EB0112A4581C7136
:1028D0000468A458240A5C710468A458240C9C71F0
:1028E0000468A258120EDA71006829B1016941F03A
:1028F00020010161002070BDC16841F02001C1606C
:10290000F8E72DE9F05F0546006800244669D0F835
:1029100004908768D0F80CB0D0F810A0D0F81880D8
:10292000F10748D0F90714D001218160B80703D519
:10293000284600F012FA0CE0780702D54FF4006444
:1029400007E0380702D54FF4805402E0284600F033
:1029500003FAF80516D529684FF480708860B80529
:1029600003D5284600F0FBF90CE0780502D544F4C5
:10297000005407E0380502D544F4804402E02846BC
:1029800000F0ECF9F80316D529684FF48030886020
:10299000B80303D5284600F0E4F90CE0780302D52B
:1029A00044F4004407E0380302D544F4803402E0E4
:1029B000284600F0D5F9300707D55FEACB6004D58B
:1029C0002968102044F40074C86070074FF00807AD
:1029D00007D55FEA0B7004D52868C760284600F069
:1029E00059F9B00706D52868C068800702D0284684
:1029F00000F052F9700607D55FEACA6004D529686D
:102A0000102044F480640861B00607D55FEA0A70BC
:102A100004D528680761284600F06EF9F00606D54F
:102A200028680069800702D0284600F066F9B003E4
:102A300008D55FEAC96005D5296810204860284696
:102A400000F05CF9F00307D55FEA097004D5286847
:102A50004760284600F086F9300446D55FEA4970A1
:102A600040D5F00504D55FEAC87001D044F00104F8
:102A7000B00504D55FEA887001D544F00204700502
:102A800004D55FEA487001D544F00404300529D527
:102A900018F0700F26D008F07000402815D006DC22
:102AA000102809D020280AD0302816D10AE0502852
:102AB0000ED0602811D10EE044F008040DE044F07F
:102AC00010040AE044F0200407E044F0400404E06D
:102AD00044F0800401E044F480742868816921F0A6
:102AE00070018161296804204860002C05D0686A63
:102AF000204368622846FFF789FEBDE8F09F70B565
:102B0000040003D094F8200010B104E0012070BD4F
:102B1000204600F081F82068016841F00101016061
:102B200000F08AFA0546052604E000F085FA401B0D
:102B30000A2811D820684068C007F6D020680168CC
:102B400021F00201016000F077FA05460BE000F089
:102B500073FA401B0A2806D9606A40F400306062AC
:102B600084F82060D2E7206840688007EFD4207E98
:102B70000128206801683DD021F080010160607E5D
:102B800001282068016838D021F040010160A07E52
:102B900001282068016833D021F020010160E07E27
:102BA0000128206801682ED041F010010160207FCB
:102BB00001282068016829D021F008010160607FA8
:102BC00001282068016824D021F004010160D4E9C3
:102BD00002010843D4E90412114308436168491E05
:102BE00008432168C86100206062012084F8200049
:102BF000002070BD41F08001C0E741F04001C5E711
:102C000041F02001CAE721F01001CFE741F00801AF
:102C1000D4E741F00401D9E710B586B00021009156
:102C20000191029103910068174988422AD11748FF
:102C3000C16941F00071C161C16901F00071049185
:102C4000816941F0040181618069114C00F0040048
:102C500004904FF4006000906946204600F0F2F8BE
:102C6000A0140090022001900320039069462046A2
:102C700000F0E8F800220521142000F07BFA14206F
:102C800000F06AFA06B010BD006400400010024077
:102C9000000801407047000070B5154B154AA3F1BC
:102CA0001C0400216068FFF7B2FD1249A1F1100079
:102CB0008A6812B1042A02D003E00A6800E04A6878
:102CC0000260CA68002A11D1097C01710021084AFA
:102CD00003E0535C4518491C6B7103798B42F8DCA7
:102CE000A068BDE87040002102F047BE70BD000042
:102CF000A8000020241B0020704770477047000088
:102D000070B5044690F82000012804D0606A40F4B1
:102D10000020606218E0022084F82000206801682A
:102D200021F00101016000F087F905460EE000BFC7
:102D300000F082F9401B0A2808D9606A40F400308C
:102D40006062052084F82000012070BD2068406882
:102D5000C007EDD1606270BD704770477047704723
:102D600070477047704710B590F821100022022973
:102D700005D00421816380F82020012010BD016866
:102D80000B6823F00E030B6001680B6823F001034E
:102D90000B6090F84030C46B012101FA03F36360CB
:102DA00080F8211080F82020104610BD10B590F852
:102DB00021100024022903D00421816301243DE075
:102DC00001680A6822F00E020A6001680A6822F0AF
:102DD00001020A601A4A0168914201D1012121E0F1
:102DE000174A1432914201D110211BE0144A2832B3
:102DF000914201D1891515E0114A3C32914201D12D
:102E000089140FE00E4A5032914202D14FF48031C2
:102E100008E00B4A6432914202D14FF4801101E084
:102E20004FF08071064A083A5160012180F8211064
:102E3000002180F82010416B01B18847204610BD69
:102E4000080002402DE9F84FDFF8B8910024A9F1FD
:102E5000040B23460F2709F1040AABF1040EC9E065
:102E60000125A5402A40AA427DD1674ED1F804C071
:102E7000ACEB0608B44532D014DCBCF1030F3AD0F9
:102E800009DCBCF1000F2AD0BCF1010F1CD0BCF151
:102E9000020F31D11DE0BCF1110F17D0BCF1120FA0
:102EA0002AD119E0B8F5881F19D006DCB8F5803FA3
:102EB00015D0B8F5801F1FD111E0B8F5001F0ED056
:102EC000B8F5041F18D10AE0CB6815E0CB681B1DCC
:102ED00012E0CB6808330FE0CB680C330CE08B6852
:102EE0002BB1012B4FF0080303D0456104E004230C
:102EF00002E0056100E00023FF2A01D8064601E058
:102F000000F104064FEA840501D9A5F12005D6F8A1
:102F1000008007FA05FC28EA0C0803FA05F548EAE0
:102F20000508C6F800804D68ED0062D5374DAE69E2
:102F300046F00106AE61AD6924F0030605F0010517
:102F40000095334D06EB050CDCF80850A607360F4C
:102F500007FA06F825EA0805DFF8B880404503D1EE
:102F60004FF0000817E044E0DFF8AC80404502D1A4
:102F70004FF001080FE0DFF8A480404502D14FF088
:102F8000020808E0DFF89880404502D14FF00308BE
:102F900001E04FF0040808FA06F848EA0508CCF802
:102FA00008804D68D9F80060ED024D4601D5164302
:102FB00000E096432E604D68DAF80060AD02554699
:102FC00001D5164300E096432E604D68DBF80060A3
:102FD000AD035D4601D5164300E096432E604D6873
:102FE000DEF80060ED03754601D5164300E0964318
:102FF0002E60641C0D682A46E5407FF431AFBDE8C1
:10300000F88F000008040140000011100010024079
:103010000000014000080140000C01400010014088
:10302000001401408068084000D0012070470AB1B8
:10303000016170470904FBE70148806870470000A0
:1030400004000020024881680278114481607047C2
:1030500004000020074810B5016841F0100101602C
:10306000032000F0A7F80F2000F006F800F050F859
:10307000002010BD0020024030B505461F4887B033
:10308000C16941F00401C161C06906A900F00400F2
:10309000009001A800F0FEF90498B0B100F01AFA0F
:1030A00040001749174AB0FBF1F11748491E02606A
:1030B000416040F2E7320021C0E903218160816173
:1030C00000F0E0FB040003D015E000F003FAE8E7AD
:1030D0000D4800F005FC04000DD11E2000F03CF866
:1030E000102D07D2002229461E2000F043F8074881
:1030F000056000E0012407B0204630BD001002400A
:1031000040420F0000080040A401002008000020F9
:103110000F4808B5816941F001018161816901F0C1
:1031200001010091C16941F08051C161C069002273
:1031300000F0805000900F21901E00F01BF8054811
:10314000416821F0E06141F00071416008BD00007C
:103150000010024000000140002809DB00F01F02BF
:10316000012191404009800000F1E020C0F80011E9
:1031700070470000F0B40E4B1B680C46C3F30223EB
:10318000C3F10705042D00D90425191D072901D213
:10319000002300E0DB1E012606FA05F1491E21404E
:1031A00099409E40761E16403143F0BC01F080BA33
:1031B0000CED00E0064900F0070208684FF6FF0337
:1031C000184040EA0220034A10430860704700009C
:1031D0000CED00E00000FA0510B501460020234C7C
:1031E000012922D0022939D010291DD16168226815
:1031F000D20119D51E48C1F38342C903805C0AD5A8
:1032000061681B4AC1F34041921E515C194AB2FBEE
:10321000F1F1484301E0184948436168490203D489
:1032200040000321B0FBF1F010BD226AC2F301217E
:10323000012903D1920701D5C80310BD022905D188
:10324000626A920702D549F6404010BD0329FCD1BD
:1032500021688903F9D54FF2244010BD00F04AF9E6
:103260006168C1F38131491C4900DBE7001002406D
:10327000FC64000800127A0000093D002DE9F843C3
:1032800005460078354CC00754D0E0690026C000E0
:1032900008D4E06940F08050E061E069012600F068
:1032A000805000902E480168C90512D401688046FC
:1032B00041F480710160FFF7BFFE074605E000BFE3
:1032C000FFF7BAFEC01B642823D8D8F80000C00559
:1032D000F6D5206A10F4407021D0A98801F440711D
:1032E00081421CD0206A1F49012220F440700A60EC
:1032F00000220A602062C00711D0FFF79DFE07463A
:1033000041F2883808E000BFFFF796FEC11B414537
:1033100002D90320BDE8F883206A8007F4D5206A2B
:10332000696820F44070084320621EB1E06920F013
:103330008050E0612878800705D56068A96820F48E
:103340004040084360602878C00605D56068E96899
:1033500020F48000084360600020DBE7001002409A
:1033600000700040400442422DE9F0470F4605003E
:1033700061D0434E306800F00700B84209D230688F
:1033800020F0070038433060306800F00700B84292
:1033900051D128683B4C810712D5400703D560689E
:1033A00040F4E06060602878000703D5606840F46E
:1033B000605060606068A96820F0F00008436060B9
:1033C0002878C00728D06868012810D02168022812
:1033D00010D0890700292EDA616821F0030101432A
:1033E0006160FFF729FE804641F288390DE02168CF
:1033F0008903EFE78901EDE7FFF71EFEA0EB080167
:10340000494502D90320BDE8F0876068696800F08B
:103410000C00B0EB810FEFD1306800F00700B8422C
:103420000BD9306820F0070038433060306800F076
:103430000700B84201D00120E5E72878400705D50C
:103440006068E96820F4E06008436060287800075D
:1034500006D56068296920F4605040EAC1006060C8
:1034600000F058F86168084AC1F30311515CC84084
:103470000649086006480068FFF7FEFD0020C2E725
:1034800000200240001002400C65000810000020DF
:10349000080000200F2202600C4A536803F0030367
:1034A0004360536803F0F0038360536803F4E06300
:1034B000C36052684FF4E06303EAD2020261044839
:1034C000006800F00700086070470000001002402C
:1034D000002002400448054900684968044AC1F3D5
:1034E0000221515CC84070471000002000100240CB
:1034F0001C6500080448054900684968044AC1F38E
:10350000C221515CC84070471000002000100240EA
:103510001C6500080E4A51680E4801F00C03042B8C
:1035200011D0082B0FD10C48C1F38343C903C05CF1
:103530000AD55168084AC1F34041921E515C054AC0
:103540005043B0FBF1F07047044948437047000016
:103550000010024000127A00EA64000800093D00F1
:103560002DE9F84F040070D02078C04DC00749D035
:103570006868C0F38100012807D06868C0F3810043
:10358000022809D16868C00306D52868800339D5A8
:1035900060680028E7D035E06068B0F5803F0BD068
:1035A00010B1B0F5A02F11D0286820F48030286029
:1035B000286820F4802002E0286840F480302860E9
:1035C000606890B1FFF738FD06460AE0286840F4CD
:1035D00080202860F0E700BFFFF72EFD801B6428E5
:1035E00073D828688003F7D50CE0FFF725FD064661
:1035F00005E000BFFFF720FD801B6428F0D8286895
:103600008003F7D420789A4E80074FF001094FF0DD
:10361000000839D5686810F00C0F07D06868C0F34F
:103620008100022809D16868C00306D42868800791
:1036300014D52069012808D110E02069B0B1C6F87E
:103640000090FFF7F9FC074605E00AE1FFF7F4FCFC
:10365000C01B0228C4D828688007F7D5286861698C
:1036600020F0F80040EAC10028600DE0C6F80080B4
:10367000FFF7E2FC074604E0FFF7DEFCC01B022870
:1036800023D828688007F7D4207800072CD57948FC
:10369000A169D9B1C0F80090FFF7CEFC074604E05D
:1036A000FFF7CAFCC01B02280FD8686A8007F7D54D
:1036B00071484FF4FA510068B0FBF1F0009000BF80
:1036C0000098411E0091FAD20EE080E0C0F8008020
:1036D000FFF7B2FC074604E0FFF7AEFCC01B022870
:1036E00075D8686A8007F7D42078400760D5E86904
:1036F0000027C00008D4E86940F08050E861E8691C
:10370000012700F0805000905C480168C90513D47F
:103710000168834641F480710160FFF78DFC8246A9
:1037200006E000BFFFF788FCA0EB0A0064284ED833
:10373000DBF80000C005F5D5E06801280AD008B123
:10374000052813D0286A20F001002862286A20F09A
:10375000040002E0286A40F001002862E06841F2BB
:10376000883B98B1FFF768FC82460BE0286A40F07E
:1037700004002862EEE700BFFFF75EFCA0EB0A0141
:1037800059455AD8286A8007F6D50CE0FFF754FC53
:10379000824605E0FFF750FCA0EB0A0159454CD8E2
:1037A000286A8007F6D41FB1E86920F08050E861EC
:1037B000E06988B36968C1F38101022944D0022815
:1037C000C6F8608004D0FFF737FC044638E034E0E8
:1037D000FFF732FC074604E0FFF72EFCC01B02286F
:1037E0002BD828688001F7D4206AB0F5803F05D136
:1037F0006868A16820F4003008436860D4E90801D3
:103800000843696821F4741108436860C6F8609041
:10381000FFF712FC044606E025E000BFFFF70CFCB2
:10382000001B022809D828688001F7D51BE000BFDB
:10383000FFF702FC001B022802D90320BDE8F88F25
:1038400028688001F4D40EE00128F7D06868226A65
:1038500000F48031914204D1616A00F47010884212
:1038600001D00120EAE70020E8E700000010024054
:1038700000004242800442421000002000700040DC
:103880007047704710B5040003D094F83D0010B1A4
:1038900007E0012010BD002084F83C00204600F025
:1038A0001EF8022084F83D00211D206800F070FD04
:1038B000012084F8460084F83E0084F83F0084F834
:1038C000400084F8410084F8420084F8430084F802
:1038D000440084F8450084F83D00002010BD704786
:1038E00090F83D10012901D001207047022180F895
:1038F0003D100168CA6842F00102CA6000680B49C5
:10390000884208D0B0F1804F05D00949884202D0E2
:103910000849884204D1816801F00701062903D0D3
:10392000016841F00101016000207047002C014056
:103930000004004000080040704770B5044600686D
:1039400001694FF00005C943890715D4C168C9430F
:10395000890711D4E91E0161012020772068806960
:103960008007204602D0FFF7E7FF04E000F098F858
:10397000204600F096F8257720680169C943490779
:1039800017D4C168C943490713D46FF0040101611A
:10399000022020772068806910F4407F204602D002
:1039A000FFF7CAFF04E000F07BF8204600F079F84A
:1039B000257720680169C943090716D4C168C9433E
:1039C000090712D46FF008010161042020772068F4
:1039D000C0698007204602D0FFF7AEFF04E000F088
:1039E0005FF8204600F05DF8257720680169C9433B
:1039F000C90617D4C168C943C90613D46FF01001B2
:103A00000161082020772068C06910F4407F2046BB
:103A100002D0FFF791FF04E000F042F8204600F0EA
:103A200040F8257720680169C943C90708D1C168F2
:103A3000C943C90704D1891E0161204600F032F84C
:103A400020680169C943090609D4C168C943090648
:103A500005D46FF0800101612046FFF711FF206857
:103A60000169C943490609D4C168C943490605D457
:103A70006FF040010161204600F01EF820680169E6
:103A8000C94389060BD4C168C943890607D46FF0BE
:103A9000200101612046BDE87040FFF7F2BE70BD15
:103AA0007047704700680349884201D1FFF7CABADE
:103AB00070470000000800407047704770470000E2
:103AC000F8B5016804460868CA684B6910F00F0F22
:103AD0004FF0000559D003F0010602F49077374308
:103AE00065D0C10705D0D10503D5616C41F0010156
:103AF0006164410705D5D90703D0616C41F002012B
:103B00006164810705D5D90703D0616C41F00401D8
:103B10006164010707D502F02001314303D0616CD5
:103B200041F008016164616C00293AD0800604D537
:103B3000900602D5204600F090FC20684069616C38
:103B4000C0F38010090700D460B3204600F05EFC8B
:103B500020684069400621D52068143050E8001FD5
:103B600021F0400140E80012002AF5D1E06BA8B135
:103B70006D494163E06BFFF719F9002811D0E06B44
:103B8000416B01B0BDE8F040084783060FD59306AE
:103B90000DD52046BDE8F84000F05FBC2046FFF799
:103BA0008DFFF8BD2046FFF789FF6564F8BD266BE1
:103BB0002023012E7CD1C6067AD5D60678D5086892
:103BC0004868009048694FF00206400640D5E16B16
:103BD000086840680004000CE8D0A28D8242E5D954
:103BE000E085886920282DD020680C3050E8001F1F
:103BF00021F4807140E80012002AF5D120681430C9
:103C000050E8001F21F0010140E80012002AF5D120
:103C10002068143050E8001F21F0400140E80012F5
:103C2000002AF5D184F84230256320680C3050E832
:103C3000001F21F0100140E80012002AF5D1E06BCE
:103C4000FFF791F86663A08DE18D401A81B22AE0FA
:103C5000A08DE18D401A81B2E08D0028A6D0002908
:103C6000A4D022680C3252E8000F20F4907042E891
:103C70000007002FF5D12068143050E8002F22F003
:103C8000010240E80027002FF5D184F84230256377
:103C900020680C3050E8002F22F0100240E800238A
:103CA000002BF5D166632046FFF707FFF8BDFFE75D
:103CB00005062BD5150629D594F841002128F5D104
:103CC000A068B0F5805F01D12069B0B1206A411CC5
:103CD0002162216800784860E08C401E0004000CDE
:103CE000E084E3D12068C16821F08001C1602068D0
:103CF000C16841F04001C160D8E7206A0088C0F384
:103D000008004860206A801C2062E5E74006CDD5A7
:103D10005006CBD5CA68204622F04002CA6084F81B
:103D2000413000F0E5F8C1E7FD43000870B504003C
:103D300004D094F84100002510B106E0012070BDC8
:103D400084F84050204600F023F8242084F84100F5
:103D50002068C16821F40051C160204600F0DEFBFC
:103D60002068016921F4904101612068416921F0D6
:103D70002A0141612068C16841F40051C160656455
:103D8000202084F8410084F842006563002070BD63
:103D900030B585B000240094019402940394006827
:103DA000184988422CD11848816941F480418161C9
:103DB000816901F480410491816941F004018161CC
:103DC0008069124D00F0040004904FF400700090E0
:103DD000022001900320039069462846FFF732F83D
:103DE0002815CDE90004694628460294FFF72AF811
:103DF000002205212520FFF7BDF92520FFF7ACF9AA
:103E000005B030BD003801400010024000080140FC
:103E100090F84230202B01D00220704721B11AB116
:103E20000023036300F0D6BB0120704770B5006823
:103E30001F4988423BD11F4C2546A668688804F17B
:103E40001802411C8BB22978002526B1012E07D01B
:103E5000022E1AD114E0252909D10126A66001E01D
:103E6000022802D2115463800FE0A02903D000F091
:103E700029FAA56009E0115463800220A06004E0E3
:103E80005529A56009D000F01DFA2570BDE87040E5
:103E9000012208490848FFF7BBBF1154A069E0613F
:103EA00000F010FA0021E06801F067FDEDE770BD59
:103EB00000380140B00000205C01002090F8413043
:103EC000202B01D00220704779B172B10162828447
:103ED000C28400214164212180F841100068C1683A
:103EE00041F08001C1600020704701207047000050
:103EF0000449884204D104480021006901F03DBD15
:103F0000704700005C010020B0000020FEE70000C8
:103F100010B5084C6068FEF7F3FE002202210A206B
:103F200001F075FBE060002210210A2001F06FFB18
:103F3000206110BD8C0000203EB500241148009483
:103F4000019402940E498460016004730475012594
:103F500005614FF460214460C161FEF737FA08B192
:103F6000FEF743F90620CDE90005694602940548AD
:103F7000FEF7AAF9002801D0FEF737F93EBD000090
:103F800000240140040100200F4810B50D490160D4
:103F90000421416000214FF480228160C0E90312B6
:103FA000D20042610176417681760122C2760177A4
:103FB0004177FEF7A4FD002803D0BDE81040FEF7CE
:103FC00014B910BD006400403401002010B5054A4A
:103FD0000021054800F0ECFB04490860BDE81040F2
:103FE00000F05AB8C4640008D54200080000002060
:103FF000F0B585B00024184800940194029403940D
:10400000816941F020018161816901F02001049101
:10401000816941F0040181618069104F00F0040062
:104020000490012203213846FFF701F801250226FA
:1040300003960095CDE9015469463846FEF702FF24
:104040000320CDE90240CDE9006569463846FEF718
:10405000F9FE05B0F0BD000000100240000801406C
:104060000C4810B50A4901604FF4E131416000216C
:1040700081600C22C160C0E904128161C161FFF757
:1040800055FE002803D0BDE81040FEF7AEB810BDC5
:10409000003801405C01002010B5FFF739FF00F047
:1040A000BBFA00F083F800F091F81649A1F128005E
:1040B000FDF721FF13480321016140F22311016044
:1040C0001148FEF7DBFA0F4B4FF48074A3F69851BA
:1040D000224601F65C40FDF767FF0C49224601F6D7
:1040E000B800FDF7F3FE0A49224601F21450FDF72D
:1040F000BDFF22460749BDE8104001F5805000F0A1
:104100003FB80000182D002004010020802300206B
:1041100080270020801B00200C2001F074FA174C2F
:10412000A06200F0C9F8206200F09CF8A06100F0E5
:1041300093F8E06100F09CF86062A16A206A01F0E7
:1041400051FAA16AE06901F04DFAD4E9090101F0E0
:1041500049FA0121A06A01F003FD0546E0698542A4
:1041600001D100F08BF8606A854201D100F094F82B
:1041700000F03AF8C82001F0FBF8EAE7D000002090
:104180000EB51823CDE900310290002302A10548A5
:1041900001F057FD0EBD00006D61696E5F6D6F64CB
:1041A0000000000019410008FEE7000010B50548B6
:1041B000FEF71EF800220821012001F028FA02492A
:1041C000086010BD04010020FC00002010B5002292
:1041D0000221012001F01BFA0149086010BD000016
:1041E00000010020FEE7000030B50F4C0F4985B0FC
:1041F0006069884201DDE56805E0B0F17F5F01DDBF
:10420000A56800E06568206902F06AF802AA82E801
:10421000230060780090237805A24FF47A710D484E
:1042200000F01EFA05B030BDD000002066662640C2
:10423000543A2025642C443A2025642C6169723A52
:1042400020252E32662C6C696768743A202573200D
:104250000D0A00005C010020014800687047000062
:10426000FC00002001480069704700008C0000201D
:104270000148006870470000000100201CB5054C93
:1042800000226946E06901F0CFFB009820610198A7
:1042900060611CBDD000002038B5064C0022694684
:1042A000606A01F0C1FB9DF8000020709DF80100DC
:1042B000607038BDD00000200148406970470000A0
:1042C000B000002002480021418081617047000059
:1042D000B00000200A2001F04BF8FBE710B5502099
:1042E00080F31188BFF34F8FBFF36F8F01F0E8FCAD
:1042F00018B104494FF080500860002080F3118805
:1043000010BD000004ED00E030B593B028216846F0
:10431000FCF763F814210AA8FCF75FF800250120D8
:104320000F9510951195010412958DE823000490C6
:104330004FF4E010CDE90810022407946846FFF717
:104340000FF908B172B6FEE70AA90F2081E8310023
:104350004FF48060CDE90D0502210AA8FFF704F8AB
:1043600008B172B6FEE74FF4004011900F940FA809
:10437000FEF784FF002801D072B6FEE713B030BD0F
:10438000704700000148FFF7D8BA0000A4010020E0
:10439000F0B50268164B174C174D4FF08047984206
:1043A00005D0B84203D0A04201D0A84203D122F0E8
:1043B00070064A683243984205D0B84203D0A04202
:1043C00001D0A84203D122F44074CA6822434C6948
:1043D00022F08002224302608A68C2620A68826216
:1043E000984201D10969016301214161F0BD0000DA
:1043F000002C0140000400400008004010B5406A55
:104400000021C185C184FFF759FB10BD01680C3143
:1044100051E8002F22F4907241E80023002BF5D1DF
:104420000168143151E8002F22F0010241E8002315
:10443000002BF5D1016B012909D101680C3151E83C
:10444000002F22F0100241E80023002BF5D120219B
:1044500080F8421000210163704708B590F84210BF
:10446000222901D0022008BD82684FF480539A426D
:1044700001D1016921B1816A9A421BD04AB10AE097
:104480000268816A5268C2F308020A80816A891C44
:1044900008E0026972B10268526802F07F020A7095
:1044A000816A491C8162C18D491E0904090CC185BC
:1044B00003D01BE002685268F1E70168CA6822F085
:1044C0002002CA600168CA6822F48072CA6001686A
:1044D0004A6922F001024A61202180F8421000213D
:1044E0004163026B012A03D0FFF7A0FC002008BD46
:1044F000016301680C3151E8002F22F0100241E8FD
:104500000023002BF5D101680A68D20602D50A689B
:1045100049680091818DFFF7D0FAE7E770B504464E
:1045200000680169E26821F4405111430161216989
:10453000A0680843616908432168CA6841F20C63B6
:104540009A430243CA6020684169A26921F440711C
:10455000114341611E492068884202D1FEF7CAFF1B
:1045600001E0FEF7B7FF00EBC00101EB001260684D
:1045700064218000B2FBF0F3B3FBF1F36FF0180697
:104580007343B2FBF0F5B2FBF0F605EB8305322383
:1045900003EB0515B5FBF1F5B6FBF1F605F0F005FB
:1045A00005EB0615B2FBF0F6B2FBF0F0B0FBF1F054
:1045B0006FF01802504306EB800003EB0010B0FBD5
:1045C000F1F0216800F00F002844886070BD000001
:1045D0000038014081628285C28500214164222128
:1045E00080F84210016921B10168CA6842F4807202
:1045F000CA6001684A6942F001024A610068C16804
:1046000041F02001C1600020704700000148FFF721
:1046100057BA00005C01002010B5032200210120E0
:1046200000F0F5FF094C0028E0600DD003220021C6
:10463000012000F0ECFF2061002805D000220221BB
:104640000A2000F0E4FF606110BD0000B00000200F
:104650000148FEF756B9000034010020FEE70000D3
:104660000FB4402110B5044605AB0648049AFBF789
:104670004DFE204603494022FFF720FC10BC5DF8A8
:1046800014FB0000401B0020490050EAC12018BF65
:1046900004204A0D18BF40F0010040F2FF72B2EB57
:1046A000515F08BF40F00200012808BF0520704795
:1046B0000907090E002804DB00F1E02080F800144F
:1046C000704700F00F0000F1E02080F8141D7047E3
:1046D00030380A2801D2012070470020704730B5D9
:1046E0004FF0E02300215D6900EBC0009A69C4002F
:1046F00098699042FCD002D2A2EB000203E0A0EB4A
:104700000202A5EB020211440246A142F0D330BDE1
:10471000FEF7A0FCFFF7F8FDFFF76AFCFFF734FC9B
:10472000FFF79EFCFFF708FC00F006F8FFF74EFCD1
:1047300000F01EF8FEE70000EFF3058058B9EFF334
:10474000108040B909490868022801D030B109E059
:10475000EFF3118030B16FF0050070470120086061
:10476000002070474FF0FF307047000064000020C9
:1047700010B5EFF3058060B9EFF3108048B90B492D
:104780000868022802D0012806D00BE0EFF3118060
:1047900040B16FF0050010BD0220086000F050FE2F
:1047A000002010BD4FF0FF3010BD0000640000205D
:1047B000F0B585B04FEA01034FF00004EFF3058137
:1047C0000394A1BBEFF3108189BB21490968022939
:1047D00002D1EFF3118151BB48B3802618218DF827
:1047E000104004AD42B3176807B13D4697691FB149
:1047F00039467F1E382F02D21779FF0702D00020DA
:1048000005B0F0BD576907B1BE08D2F808C0BCF1C9
:10481000000F0DD0D4685C2C18D312693AB137B1AF
:104820008DE806103246294601F00BFA03900DE0A0
:10483000D7685FB912694AB903AACDE90012B2B2CA
:10484000294601F0D1F9012800D003940398D7E755
:10485000640000202DE9F041134C0F4605466669BF
:104860002068001D00F054FC681C07D137B1216896
:10487000BDE8F0410D48091D00F09ABC20683544A0
:10488000B5424560216805D2A068BDE8F041091D28
:1048900000F076BC6068091D00F072FC206B854258
:1048A00000D22563BDE8F08114000020DC06002062
:1048B0002DE9F041054600F087FC2D4C2069401C95
:1048C000206120682B4F10B1E06930B32BE02560E8
:1048D0002069012827D1002606EB860007EB80001F
:1048E00000F040FC761C382EF6D3234800F03AFC4A
:1048F0002148143000F036FC1F48283000F032FC0C
:104900001D483C3000F02EFC1B48503000F02AFCC3
:10491000194860601430A06005E02068E96AC06A48
:10492000884200D82560E06A401CE0626864E86A5A
:10493000A169884200D9A06100EB800007EB8000EC
:10494000291D00F035FC00F05FFCE06900280CD068
:104950002068E96AC06A884207D208494FF080504F
:104960000860BFF34F8FBFF36F8FBDE8F081000089
:10497000140000202C0200208C06002004ED00E032
:1049800038B500F021FC104CA068C8B90F4800F001
:10499000E9FB0E48143000F0E5FB0C4820601430B1
:1049A00060600A4B00202833009003F1540210216C
:1049B0000A2000F050FEA06010B105A100F0A2FC9A
:1049C000BDE8384000F020BC50000020F006002078
:1049D000546D72510000000030B4026C0B46002A86
:1049E0000BD0C1681144C1604468A14201D3016881
:1049F000C16030BC1846FBF7A3BC30BC70472DE942
:104A0000F041856B174604460026026C82B1C7B19F
:104A1000E068FBF795FCE168206C091AE160226808
:104A2000914202D26168081AE060022F16D017E0A6
:104A30002068A8B9606801F0A7F906460020606008
:104A40000EE0A068FBF77CFC216CA0680844A06025
:104A50006168884204D32068A06001E005B16D1E42
:104A60006D1CA5633046BDE8F08110B5044690F892
:104A7000590058B101280CD002280FD0502080F3E3
:104A80001188BFF34F8FBFF36F8FFEE7206B00F0ED
:104A9000CFFB2046BDE8104000F0CABB10BD0000AF
:104AA00010484FF44061420706D0C01D0D4920F068
:104AB0000700411AC1F540610B4A00230144C2E9D5
:104AC00000030839103A21F0070111604B600B60B8
:104AD0000B1AC0E9001393604FF000405360D060A0
:104AE00070470000C40E002078000020144E154CC2
:104AF000A6F29C474FF08058DFF84C9012E000BFC0
:104B000000F062FBF068C568281D00F001FB206919
:104B1000401E2061E068401EE06000F075FB284602
:104B2000FFF7A3FFE0680028EAD138680128F9D927
:104B3000C9F80080BFF34F8FBFF36F8FF2E700001B
:104B4000C80600201400002004ED00E070B51D46EA
:104B5000049C61B1C4F80020C4E90F010121204682
:104B600000F0ACFD84F850500020A06470BD2460BB
:104B7000F2E72DE9F0470E46DDE909841746824643
:104B800091009946089DA522206BFBF71EFC6FF053
:104B90000301206B01EB8701084420F00707780729
:104BA00007D0502080F31188BFF34F8FBFF36F8F72
:104BB000FEE72218315C82F83410315C11B1401CE0
:104BC0001028F6D3002684F84360382D00D337250B
:104BD000E562C4E91356201D00F0CFFA04F1180075
:104BE00000F0CBFA2461C5F138006462A06166650B
:104BF00084F858604A465146384600F077FA2060FB
:104C0000B8F1000F01D0C8F80040BDE8F0870000FF
:104C100030B5114900E011460A688242FBD34B6867
:104C20005C18844203D140681844486008464368D1
:104C30001C18944209D1084C103C2468A24209D0A7
:104C400052681A4442600A6812680260814200D0C9
:104C5000086030BD0460F9E77800002070B50024DA
:104C600041600B4D0061914206D8D11A8269914290
:104C700006D2011D686807E09A4203D2994201D327
:104C8000012403E0011D286800F07AFA204670BD77
:104C90005000002010B5044600F096FAA06B28B131
:104CA0005FF0000400F0B0FA204610BD0124F9E7DF
:104CB00073B500260098846C5CB1A26BE06B8242F5
:104CC0000FD3502080F31188BFF34F8FBFF36F8F46
:104CD000FEE7502080F31188BFF34F8FBFF36F8F33
:104CE000FEE7A26B82420CD294F945500A4669460F
:104CF0002046FFF784FE0646681C04D06D1C84F82D
:104D0000455030467CBD606A0028FAD004F124008A
:104D100001F07AF80028F4D00126F2E730B589B026
:104D2000304D55E00498002806DADDE90601059AC1
:104D30009047049800284BDB069C606910B1201D49
:104D400000F0E6F902A800F0B9F8024604980A2833
:104D50003ED2DFE800F00505053D263705053D2676
:104D60000598A169034601442046FFF777FF00B389
:104D7000616A20468847E069012829D10020009017
:104D80000598A169002342181946204601F006F94A
:104D900078B9502080F31188BFF34F8FBFF36F8F26
:104DA000FEE70598A06128B1811813462046FFF759
:104DB00055FF0DE0502080F31188BFF34F8FBFF3F4
:104DC0006F8FFEE794F82C0010B9204600F030FAFF
:104DD000002204A9A86800F027FE0028A2D109B08B
:104DE00030BD0000500000202DE9FC410F46054673
:104DF00000F06AFB01A800F061F80446019818B1C0
:104E000001F03AF8BDE8FC81224EAFB1706800684D
:104E1000A8B30027291B3A46B06800F087FA01F0D2
:104E20002BF80028EED11C494FF080500860BFF3EA
:104E30004F8FBFF36F8FE5E7A542EBD801F01CF869
:104E400030682746C068C468201D00F061F9E06939
:104E5000012810D1A0692B4641193A462046FFF798
:104E6000FDFE40B100200346014600902A46204640
:104E700001F094F820B1616A20468847C2E707E054
:104E8000502080F31188BFF34F8FBFF36F8FFEE781
:104E90000127BFE75000002004ED00E0064841680C
:104EA000096829B14168C968C968496801637047E0
:104EB0004FF0FF31FAE700001400002070B50546FE
:104EC00000F0F8FE064E04463069844203D200F03A
:104ED00009F8012000E0002028602046346170BD00
:104EE00050000020F8B5194D1FE0C068C46806687E
:104EF000201D00F00DF9616A20468847E06901280D
:104F000013D1A0693044B04206D924616060211DEC
:104F1000286800F035F908E00020034601460090BB
:104F20003246204601F03AF838B128680168002975
:104F3000DBD16968C5E90010F8BD502080F3118805
:104F4000BFF34F8FBFF36F8FFEE7000050000020CC
:104F500008484068401C4FF0500080F3118804D08E
:104F6000BFF34F8FBFF36F8FFEE7BFF34F8FBFF3DA
:104F70006F8FFEE780000020074C2068016841B178
:104F8000C0680021D0F80000FFF72EFFFFF7C6FE33
:104F9000F3E701210020F7E7500000202DE9F04160
:104FA000044600F011F994F9455004F1240610E08C
:104FB000A06C20B100212046FFF77AFE04E0606A71
:104FC00048B1304600F020FF08B100F0FFF96D1E37
:104FD0006DB2002DECDC4FF0FF3684F8456000F038
:104FE00013F900F0F1F894F9445004F1100709E0C6
:104FF000206948B1384600F007FF08B100F0E6F933
:105000006D1E6DB2002DF3DC84F84460BDE8F04104
:1050100000F0FAB82DE9F0410546002700F054FAF7
:10502000314E306808B9FFF73BFDF06805424BD1BF
:10503000C5B3083568070ED005F00700C0F10800B9
:105040000544680707D0502080F31188BFF34F8FC5
:10505000BFF36F8FFEE72DB37068854234D82248C6
:10506000103001460C6801E020460C466168A942F8
:1050700002D221680029F7D131688C4224D0076818
:105080002168016060680837411B10290FD9601939
:10509000420708D0502080F31188BFF34F8FBFF331
:1050A0006F8FFEE710E041606560FFF7B1FD61685A
:1050B0007068401A7060B268904200D2B060F068C8
:1050C00001430020C4E9000100F0D6FE780707D0B4
:1050D000502080F31188BFF34F8FBFF36F8FFEE72F
:1050E0003846BDE8F08100006800002010B5031FBD
:1050F0004FF080741C601B1F21F001011960191F03
:10510000024B0B60143940380A6010BD514F000843
:10511000D0E9013201699A60D0E901235A604A68F6
:10512000824201D182684A60002202610868401E02
:105130000860086870470000034B036003F15C00DF
:1051400008608020106070470C080020044B03604A
:1051500003F15C0008604FF480701060704700003D
:10516000680A002000F108014FF0FF32C0E9011287
:10517000C160016100210160704700210161704739
:1051800030B50B685A1C02D000F1080202E0026937
:1051900004E02246546825689D42FAD953684B6062
:1051A00099608A60516008610168491C016030BDE6
:1051B00042684A6093688B609368596091600861A7
:1051C0000168491C01607047502080F31188BFF3CB
:1051D0004F8FBFF36F8F0A494868401C4860012811
:1051E0000CD10848006810F0FF0F07D0502080F362
:1051F0001188BFF34F8FBFF36F8FFEE7704700003A
:105200008000002004ED00E00849486828B1401EF5
:10521000486001D180F311887047502080F31188D5
:10522000BFF34F8FBFF36F8FFEE7000080000020B9
:1052300070B5002827D0144DA0F108046168E86813
:10524000014207D1502080F31188BFF34F8FBFF385
:105250006F8FFEE722683AB1502080F31188BFF3C8
:105260004F8FBFF36F8FFEE78143616000F02CF931
:1052700060686968084468602046FFF7C9FCBDE8BB
:10528000704000F0F9BD70BD680000204FF0E020D4
:1052900000210161816105494FF47A720968B1FB0F
:1052A000F2F1491E416107210161704710000020A1
:1052B00010B5FBF707F8114910280ED300F1E020D4
:1052C00090F8F0030A78904207D2502080F31188BA
:1052D000BFF34F8FBFF36F8FFEE7094800688968FF
:1052E00000F4E060884207D9502080F31188BFF3B2
:1052F0004F8FBFF36F8FFEE710BD000080000020CE
:105300000CED00E010B5084B002200BF53F832400E
:105310001CB1521C082AF9D310BD43F8321003EB1C
:10532000C201486010BD0000EC01002070B51546B8
:105330000E460446FFF748FF94F944100020491C2C
:1053400001D184F8440094F94510491C01D184F836
:105350004500FFF759FFA06B28B92A46314604F1F2
:10536000240000F051F82046BDE87040FFF716BE5B
:1053700010B5020014D00F48806B38B1502080F374
:105380001188BFF34F8FBFF36F8FFEE700F09CF8DB
:1053900000211046FFF75EFA00F06EFD002807D1ED
:1053A00005494FF080500860BFF34F8FBFF36F8FF8
:1053B00010BD00001400002004ED00E002498A6ADC
:1053C00002604969416070471400002001490120D2
:1053D000486270471400002010B50C4650B10949CE
:1053E00009681831FFF7CCFE2046BDE810400121C6
:1053F000FFF730BA502080F31188BFF34F8FBFF30F
:105400006F8FFEE71400002070B514460D4668B19A
:105410000A4909681831FFF7CBFE0CB14FF0FF3590
:1054200021462846BDE87040FFF714BA502080F3AB
:105430001188BFF34F8FBFF36F8FFEE7140000207A
:1054400030B587B00024039405AA04A903A80494E6
:10545000FFF772FEDDE903010094CDE9011000239E
:1054600015A11748059A00F0ECFB164D002868635B
:105470001FD000F063FD012809D0401C19D1502035
:1054800080F31188BFF34F8FBFF36F8FFEE750207B
:1054900080F31188BFF34F8FBFF36F8F4FF0FF3052
:1054A00028630120E8616C6107B0BDE8304000F07E
:1054B00045B807B030BD000049444C45000000002D
:1054C000ED4A0008140000200248816B491C8163EA
:1054D0007047000014000020164810B5816B11B110
:1054E0000121416210BD002141628169124A01E03F
:1054F000B9B1491E01EB810352F82330002BF7D0DC
:1055000001EB810302EB830202F1080453685B683C
:105510005360A34201D15B685360DA680260816125
:1055200010BD502080F31188BFF34F8FBFF36F8FF2
:10553000FEE70000140000202C0200201CB52649C4
:1055400008780190FF20087008788DF800009DF819
:1055500000009DF8002000F0F000904207D050209D
:1055600080F31188BFF34F8FBFF36F8FFEE79DF875
:1055700000001A4B00F0500018700720986005E0FA
:105580009DF8002052008DF80020401E9DF800205C
:105590001206F5D49860032807D0502080F31188B4
:1055A000BFF34F8FBFF36F8FFEE74FF440709860EB
:1055B000019808700A48016841F4700101600168AF
:1055C00041F070410160FFF761FE00205860FAF77A
:1055D00043FE00201CBD000000E400E0800000202D
:1055E00020ED00E070B50D460446FFF7EDFDA06C20
:1055F00008B9A06B08B1002401E0A5640124FFF7FD
:1056000003FE204670BD00220421AFF30080F8B5F0
:1056100017460E46050014D0DEB105FB06F05430E7
:10562000FFF7F8FC04000AD0002084F8460004F1DB
:1056300054023B46314628460094FFF787FA20463D
:10564000F8BD502080F31188BFF34F8FBFF36F8FE9
:10565000FEE70020E3E738B5049D18B153B1CAB1A5
:1056600081B120E0502080F31188BFF34F8FBFF34A
:105670006F8FFEE7502080F31188BFF34F8FBFF389
:105680006F8FFEE7502080F31188BFF34F8FBFF379
:105690006F8FFEE739B1502080F31188BFF34F8F31
:1056A000BFF36F8FFEE754241C46012384F8463075
:1056B0002B460094FFF74AFA204638BD70B50D46D8
:1056C000040025D0FFF780FDD4E90F20216802FBFC
:1056D000001161600021A1632168A1600A46D4E93C
:1056E0000F01401E00FB0121E16021464FF0FF3019
:1056F00001F8440F487004F110008DB1FFF732FD3E
:1057000004F12400FFF72EFDFFF77EFD012070BDA0
:10571000502080F31188BFF34F8FBFF36F8FFEE7E8
:1057200021690029F0D000F06FFB0028ECD004497B
:105730004FF080500860BFF34F8FBFF36F8FE3E7E8
:1057400004ED00E02DE9FF4782B01D468A464FF088
:105750000008040003D0BAF1000F08D011E0502077
:1057600080F31188BFF34F8FBFF36F8FFEE7206C7C
:1057700038B1502080F31188BFF34F8FBFF36F8F84
:10578000FEE7022D0AD1E06B012807D0502080F3FC
:105790001188BFF34F8FBFF36F8FFEE700F07CFAE5
:1057A000424F4FF000094FF0805648B9049838B185
:1057B000502080F31188BFF34F8FBFF36F8FFEE748
:1057C000FFF702FDA06BE16B884207D3022D05D0E5
:1057D000049808B3B8F1000F21D025E02A465146BD
:1057E0002046FFF70CF9A16C21B129462046FFF7AE
:1057F0005FFA05E0616A19B104F1240000F004FBCE
:1058000020B13E60BFF34F8FBFF36F8FFFF7FCFCFB
:10581000012006B0BDE8F087FFF7F6FC22E06846FD
:10582000FFF7CCFD4FF00108FFF7EEFCFFF74CFE51
:10583000FFF7CAFC94F94400401C01D184F844905D
:1058400094F94500401C01D184F84590FFF7DCFC39
:1058500004A9684600F08EF930B12046FFF79EFBA0
:1058600000F00AFB0020D4E7FFF7AEFCA06BE16B71
:10587000884213D1FFF7C8FC04F110000499FFF728
:10588000ABFD2046FFF78AFB00F0F6FA002897D11F
:105890003E60BFF34F8FBFF36F8F91E7FFF7B4FC0C
:1058A0002046FFF77BFB00F0E7FA89E704ED00E014
:1058B0002DE9F047984617468946040003D0B9F110
:1058C000000F08D011E0502080F31188BFF34F8FF4
:1058D000BFF36F8FFEE7206C38B1502080F3118842
:1058E000BFF34F8FBFF36F8FFEE7B8F1020F0AD1FE
:1058F000E06B012807D0502080F31188BFF34F8F51
:10590000BFF36F8FFEE7FFF7D3FC5020EFF3118654
:1059100080F31188BFF34F8FBFF36F8FA06BE16BE4
:10592000884207D3B8F1020F04D0002086F3118813
:10593000BDE8F08794F94550424649462046FFF7B6
:105940005EF8681C04D06D1C84F845500120EDE71A
:10595000A06C012520B141462046FFF7A9F906E0D9
:10596000606A0028F2D004F1240000F04DFA00280B
:10597000ECD0002FEAD03D60E8E72DE9F0410E467B
:10598000040009D0206C78B1502080F31188BFF357
:105990004F8FBFF36F8FFEE7502080F31188BFF366
:1059A0004F8FBFF36F8FFEE7206848B9606838B14A
:1059B000502080F31188BFF34F8FBFF36F8FFEE746
:1059C000FFF776FC5020EFF3118580F31188BFF3C9
:1059D0004F8FBFF36F8FA16BE06B88421FD994F993
:1059E0004500491CA163411C04D0401C84F84500BB
:1059F000012015E0A06C012720B100212046FFF70F
:105A000057F906E0606A0028F2D004F1240000F0A3
:105A1000FBF90028ECD0002EEAD03760E8E7002040
:105A200085F31188BDE8F0812DE9F747002683B0A2
:105A30008A46040003D0BAF1000F08D011E05020CC
:105A400080F31188BFF34F8FBFF36F8FFEE7206C99
:105A500038B1502080F31188BFF34F8FBFF36F8FA1
:105A6000FEE700F019F9DFF8F4804FF000094FF07D
:105A7000805748B9059838B1502080F31188BFF39A
:105A80004F8FBFF36F8FFEE7FFF79EFBA56BC5B18E
:105A900051462046FEF7A0FF6D1EA563206950B158
:105AA00004F1100000F0B0F928B1C8F80070BFF39D
:105AB0004F8FBFF36F8FFFF7A7FB012006B0BDE844
:105AC000F087059808B11EB106E0FFF79DFB27E0BF
:105AD0006846FFF773FC0126FFF796FBFFF7F4FC1F
