:020000040800F2
:100000005836002021020008C92B00089926000854
:10001000792A0008210600081D30000800000000B1
:10002000000000000000000000000000890100083E
:100030001509000800000000CD010008912C0008FF
:100040003B0200083B0200083B0200083B0200089C
:100050003B0200083B0200083B0200083B0200088C
:100060003B0200083B0200083B0200083B0200087C
:100070003B0200083B0200083B0200083B0200086C
:100080003B0200083B0200083B0200083B0200085C
:10009000D92F00083B0200083B0200083B02000881
:1000A0003B0200083B0200083B0200083B0200083C
:1000B0003B0200083B020008392D00083B02000803
:1000C0003B0200083B0200083B0200083B0200081C
:1000D0003B020008C12F0008CD2F00083B0200089A
:1000E0003B0200083B0200083B02000800F002F857
:1000F00000F03AF80AA090E8000C82448344AAF188
:100100000107DA4501D100F02FF8AFF2090EBAE885
:100110000F0013F0010F18BFFB1A43F0010318473B
:10012000C04F0000E04F0000103A24BF78C878C1EB
:10013000FAD8520724BF30C830C144BF04680C60ED
:10014000704700000023002400250026103A28BF35
:1001500078C1FBD8520728BF30C148BF0B60704739
:100160001FB51FBD10B510BD00F045F91146FFF7D2
:10017000F7FF02F0BEFF00F063F903B4FFF7F2FFF0
:1001800003BC00F06BF90000224B19680868B0E866
:10019000F00F80F30988BFF36F8F4FF0000080F3FA
:1001A00011884EF00D0E70470000000006480068F0
:1001B000006880F3088862B661B6BFF34F8FBFF363
:1001C0006F8F00DF00BF00BF08ED00E0EFF3098094
:1001D000BFF36F8F0F4B1A6820E9F00F106008B55E
:1001E0004FF0500080F31188BFF34F8FBFF36F8F34
:1001F00003F0DAFE4FF0000080F31188BDE80840FC
:1002000019680868B0E8F00F80F30988BFF36F8FB2
:10021000704700BF14000020EFF305807047000016
:100220000948804709480047FEE7FEE7FEE7FEE78A
:10023000FEE7FEE7FEE7FEE7FEE7FEE704480549C6
:10024000054A064B70470000352D0008ED000008F8
:1002500058300020583600205832002058320020F4
:10026000032A40F2308010F0030C00F0158011F8E2
:10027000013BBCF1020F624498BF11F801CB00F8BA
:10028000013B38BF11F8013BA2F1040298BF00F80E
:1002900001CB38BF00F8013B11F0030300F0578099
:1002A000083AC0F0088051F8043B083A51F804CBF2
:1002B000A0E80810F5E7121D5CBF51F8043B40F8B8
:1002C000043BAFF30080D20724BF11F8013B11F8C3
:1002D00001CB48BF11F8012B24BF00F8013B00F807
:1002E00001CB48BF00F8012B704702F0FF0343EA3F
:1002F000032242EA024200F05EB84FF0000200B56D
:10030000134694469646203922BFA0E80C50A0E838
:100310000C50B1F12001BFF4F7AF090728BFA0E8E6
:100320000C5048BF0CC05DF804EB890028BF40F8B2
:10033000042B08BF704748BF20F8022B11F0804FF4
:1003400018BF00F8012B704770477047704710B511
:10035000203AC0F00B80B1E81850203AA0E81850BD
:10036000B1E81850A0E81850BFF4F5AF5FEA027C7E
:1003700024BFB1E81850A0E8185044BF18C918C0ED
:10038000BDE810405FEA827C24BF51F8043B40F88E
:10039000043B08BF7047D20728BF31F8023B48BF73
:1003A00011F8012B28BF20F8023B48BF00F8012BB1
:1003B00070474FF000020429C0F0128010F0030CC7
:1003C0003FF49DAFCCF1040CBCF1020F18BF00F854
:1003D000012BA8BF20F8022BA1EB0C01FFF78FBF68
:1003E0005FEAC17C24BF00F8012B00F8012B48BF55
:1003F00000F8012B7047754600F02CF8AE4605005A
:100400006946534620F00700854618B020B5FFF72F
:1004100015FFBDE820404FF000064FF000074FF0F9
:1004200000084FF0000B21F00701AC46ACE8C00912
:10043000ACE8C009ACE8C009ACE8C0098D4670471B
:1004400010B50446AFF300802046BDE81040FFF72A
:1004500094BE000000487047F42F00200149182086
:10046000ABBEFEE7260002007047000070B50446F0
:1004700000688168C943C90717D1816821F001016B
:10048000816001F06FF905460AE000BF01F06AF9EA
:10049000401B022804D920688068C043C00706D0EA
:1004A00020688068C043C007F0D0002070BDA06AFB
:1004B00040F01000A062E06A40F00100E06201201C
:1004C00070BD0000F8B500260446009600688168FB
:1004D000C943C9072DD0816841F0010181601648E8
:1004E00016490068B0FBF1F000E0401E00900028C3
:1004F000FBD101F037F9054616E000BF01F032F9F3
:10050000401B022810D920688068C043C0070BD068
:10051000A06A40F01000A062E06A40F00100E062D2
:1005200084F824600120F8BD20688068C043C007BB
:10053000E4D10020F8BD00001000002040420F0070
:1005400001252A4FDFF8A8A086B04FF0060907243E
:100550004FF066366FF00B08CDF80090CDE90154EE
:100560006946244800F046FA224800F01DFC0A21A2
:10057000204800F07BFB052003F01AFC1D4800F02A
:10058000B7FA04F0EAFB32463B4604F0F9FB04F00C
:10059000B3FB414604F02FFDCDE90240CDE9004513
:1005A0006946144800F026FA124800F0FDFB0A21C3
:1005B000104800F05BFB052003F0FAFB0D4800F04B
:1005C00097FA04F0CAFB32463B4604F0D9FB04F02C
:1005D00093FB414604F00FFD002304901A4603A943
:1005E000DAF8000003F016FEB6E7000066660A407F
:1005F000D00000200C0100200EB51823CDE90031F9
:100600000290002302A1054804F03FF90EBD00004E
:10061000524541445F414443000000004105000849
:10062000FEE70022026042608260C26042610123F4
:100630008361C361036202610A604A608A60C1E942
:1006400003230A757047000008B5204C0168DFF8E5
:1006500080902160416861608168A160C168E1604B
:1006600001692161007D20754FF0FF3AA4F1100867
:10067000A9F11405154952461039286903F03CFFC9
:1006800098F8002089F8002098F8012089F80120C6
:10069000D8F80410404601B12160C16801B1616021
:1006A000D8F8080000B12061002642F210776B46AE
:1006B000074A0649686800F0D7FB10B1761CBE42B5
:1006C000F5DB00206861A861D4E700004C1B002026
:1006D000A00000203EB518240094CDE9011002A12D
:1006E000044804F0D2F83EBD57687269745F434114
:1006F0004E0000004906000870B5002400F05EF8C6
:10070000134D04E0641CE4B2012002F0D9FC022184
:10071000284601F01DF8012803D0642C14D20024CF
:1007200007E0642CEED30FE0641CE4B2012002F079
:10073000C7FC0221284601F00BF8012802D0642CE6
:10074000F2D301E0642C01D3012070BD002070BD04
:10075000000801400EB50F4D002400BF8DF8044085
:100760008DF8084002A901A800F09FF80028F5D1F3
:100770009DF804009DF8081050EA0102EED08DF8B3
:1007800000008DF8011000231A466946286803F01E
:1007900041FDE3E7D40000200EB51723CDE9003179
:1007A0000290002302A1044804F06FF80EBD00007F
:1007B0004448543131000000550700081FB500209F
:1007C00001900220009001200290032003906946CE
:1007D000014800F0CDFE1FBD000801401FB50020FC
:1007E000029002200090012001900320054C03900C
:1007F0006946204600F0BCFE01220221204600F09E
:10080000ACFF1FBD000801401FB500200290022070
:100810000090012001900320054C0390694620467A
:1008200000F0A6FE00220221204600F096FF1FBD28
:100830000008014070B50024144D04E0641CE4B2CB
:10084000012002F03DFC0221284600F081FF012832
:1008500001D1642CF2D3002404E0641CE4B2012032
:1008600002F02EFC0221284600F072FF012801D080
:10087000642CF2D3282002F023FC0221284600F049
:1008800067FF012800D0002070BD00000008014073
:1008900070B5002004464006050EFFF7CBFF641C30
:1008A0002843E4B2082CF6D370BD2DE9FC410D4677
:1008B000064600F022F8FFF71FFF10B10120BDE847
:1008C000FC8100246F46FFF7E3FF3855641CE4B257
:1008D000052CF8D39DF800109DF801009DF8033019
:1008E0000A189DF8020003441A449DF804309A4205
:1008F00001D1297030700020E1E710B5FFF784FFC7
:10090000142003F055FAFFF769FFBDE810401E20E0
:1009100002F0D6BB704772B6FEE70000F8B50025BE
:100920000446009590F8240001280BD0012084F89B
:1009300024002046FFF79AFD2046FFF7C3FD06007E
:1009400002D050E00220F8BDA06A20F4885040F0A8
:100950000200A062022000F0D5FF25490968B1FB22
:10096000F0F0400000E0401E00900028FBD120681D
:10097000816841F00801816000F0F4FE074608E05C
:1009800000F0F0FEC01B0A2803D920688068000729
:1009900015D4206880680007F2D42068816841F08F
:1009A0000401816000F0DEFE074612E000F0DAFE8E
:1009B000C01B0A280DD920688068400709D5A06AA5
:1009C00020F0020040F01000A06284F824500120C2
:1009D000F8BD206880684007E8D4A06A20F00200D3
:1009E00040F00100A06284F824503046F8BD0000B9
:1009F00010000020F8B50024009490F8242025462B
:100A0000012A12D0012280F824204A681F23072AD5
:100A10000DD20668776B521E02EB820293409F4311
:100A20000B6893401F43776319E00220F8BD066806
:100A30000D2A0AD2376BD21F02EB820293409F43EA
:100A40000B6893401F43376309E0F76A0D3A02EBE6
:100A5000820293409F430B6893401F43F7620A68EA
:100A6000072306680A2A0AD3F7680A3A02EB420209
:100A700093409F438B6893401F43F76008E03769BA
:100A800002EB420293409F438B6893401F433761C0
:100A90000A68102A01D0112A20D1124B02689A420A
:100AA00017D193681B0219D4936843F40003936031
:100AB0000968102912D10C490C4A0968B1FBF2F1FE
:100AC00001EB8101490000E0491E00910029FBD1A2
:100AD00004E0816A41F020018162012480F8245001
:100AE0002046F8BD002401401000002040420F00C5
:100AF0000068C06C704700002DE9F0414FF000071E
:100B000004003D467ED0A06A002628B9E66284F83B
:100B10002460204600F07EF82046FFF7A7FCA16A7B
:100B2000C90600D420B1A06A40F01000A06269E0BC
:100B3000A16A21F4885141F00201A1626268E16971
:100B4000237B0A4347EA43010A43A1684FF48077B5
:100B5000B94209D0012907D05FF0000194F814C010
:100B6000BCF1010F02D00AE03946F7E7F3B1A36AFE
:100B700043F02003A362E36A43F00103E3622368C6
:100B8000D3F804C02CF4694C4CEA010CC3F804C03F
:100B900021688B68DFF870C003EA0C0313438B6095
:100BA000A168B9420BD0012909D00CE0DFF85CC084
:100BB000A3690CEB43330B4343F40061DFE7218A65
:100BC0000D05A5F580152168CB6A23F470032B432E
:100BD000CB62216889680E4B1940914208D1E662C8
:100BE000A16A21F0020141F00101A162BDE8F0819A
:100BF000A06A20F0020040F01000A062E06A40F01D
:100C00000100E0620120F1E7FDF7E1FF00E0FFFFF6
:100C1000FE0E1FFF00B585B00021009101910291E9
:100C2000039100680E49884218D10E48816941F449
:100C300000718161816901F400710491816941F061
:100C4000040181618069694600F00400049040203D
:100C5000009003200190044800F08AFC05B000BD1C
:100C60000024014000100240000801402DE9F84333
:100C700000270D460446009700F074FD804620686A
:100C80008168C90508D5A06A40F02000A06284F8F8
:100C900024700120BDE8F8834168C90503D4C06A07
:100CA00010F4700F2AD0022000F02CFE3B49096896
:100CB000B1FBF0F62068036939490B424FEA610144
:100CC0004FEAA1121FD1C3684FEA611C13EA0C0F4F
:100CD00019D103690B4225D1C068104222D11420DA
:100CE00023E0681C0AD02DB100F03CFDA0EB080009
:100CF000A84203D920680068800725D520680068CD
:100D00008007EED52DE003690B4202D1C168114284
:100D100006D0026923490A4206D1C068084203D1BD
:100D2000542002E0292000E0FC204643009816E011
:100D3000681C11D02DB100F015FDA0EB0800A842F1
:100D40000AD90098B04207D2A06A40F00400A0621D
:100D500084F8247003209DE70098401C0090B04266
:100D6000E6D321686FF012000860A06A40F40070BA
:100D7000A06220688068C0F3424007280CD1207B25
:100D800050B9A06A20F48070A062A06AC00403D4A5
:100D9000A06A40F00100A06200207BE71000002064
:100DA000244992244992240070B5044690F8240006
:100DB00001280DD0012084F824002046FFF782FB93
:100DC00002004FF0000005D084F82400104670BDEA
:100DD000022070BDA16A40F20123994341F4807161
:100DE000A1621F4D23681F49AB4218D10E6816F44B
:100DF000702F14D0A66A46F48016A6620E68760597
:100E000005D5A66A26F4005646F48056A662A66A60
:100E1000F6040AD5E66A26F00606E66206E0A66A49
:100E200026F48016A6625E68E9E7E06284F8240092
:100E30006FF00200186020688368C3F34243072BF9
:100E400005D1A84208D1096811F4702F04D0816837
:100E500041F480118160B9E7816841F4A001F9E7AC
:100E60000028014004240140F0B590F820500468A7
:100E7000A468012D05D0022D03D0416A41F48021E0
:100E800057E014F0406F01D1E5004FD5C4F3016481
:100E90000125A5401D608D684FF4C0739DB1CE68DB
:100EA00035434E6845EAC605066803EB0417F5515D
:100EB0004FF4C275076805EB04150E697E51097D74
:100EC000012905D009E00E88CD6845EA4655EBE7D3
:100ED00001684E5946F480764E511179D57956798C
:100EE00041EA056195792D0445EA062529434FF429
:100EF000C676056806EB0416A9511178D57841EA43
:100F00000561957852782D0445EA022211434FF489
:100F1000C475026805EB04155151006803EB041118
:100F2000425842F0010242500020F0BD416A41F4B3
:100F3000001141620120F0BD704770B590F820406B
:100F4000012C05D0022C03D0416A41F4802128E015
:100F5000046809B32469A40720D04FF4D874056845
:100F600004EB01142D5915F00405956005682D5901
:100F70001AD0ED08556005682C5904F00204D460BD
:100F80004FF4DA74056804EB01142E5906F00F06CD
:100F9000082E0CD308250DE0E468DCE7416A41F433
:100FA00000114162012070BD6D0D1560E3E72D5900
:100FB00005F00F05156105682D59C5F307259561E5
:100FC00005682C59240C54614FF4DC72046802EB60
:100FD0000112A4581C700468A458240A5C700468A8
:100FE000A458240C9C700468A258120EDA704FF4B6
:100FF000DE72046802EB0112A4581C710468A45844
:10100000240A5C710468A458240C9C710468A258DA
:10101000120EDA71006829B1016941F02001016105
:10102000002070BDC16841F02001C160F8E72DE9E2
:10103000F05F0546006800244669D0F80490876890
:10104000D0F80CB0D0F810A0D0F81880F10748D034
:10105000F90714D001218160B80703D5284600F0B4
:1010600012FA0CE0780702D54FF4006407E0380765
:1010700002D54FF4805402E0284600F003FAF80548
:1010800016D529684FF480708860B80503D52846C6
:1010900000F0FBF90CE0780502D544F4005407E0B9
:1010A000380502D544F4804402E0284600F0ECF90B
:1010B000F80316D529684FF480308860B80303D54B
:1010C000284600F0E4F90CE0780302D544F400442B
:1010D00007E0380302D544F4803402E0284600F0EB
:1010E000D5F9300707D55FEACB6004D52968102011
:1010F00044F40074C86070074FF0080707D55FEA32
:101100000B7004D52868C760284600F059F9B0076D
:1011100006D52868C068800702D0284600F052F93A
:10112000700607D55FEACA6004D52968102044F428
:1011300080640861B00607D55FEA0A7004D52868A4
:101140000761284600F06EF9F00606D528680069A8
:10115000800702D0284600F066F9B00308D55FEAA0
:10116000C96005D5296810204860284600F05CF960
:10117000F00307D55FEA097004D528684760284660
:1011800000F086F9300446D55FEA497040D5F00595
:1011900004D55FEAC87001D044F00104B00504D55D
:1011A0005FEA887001D544F00204700504D55FEA57
:1011B000487001D544F00404300529D518F0700FAB
:1011C00026D008F07000402815D006DC102809D081
:1011D00020280AD0302816D10AE050280ED06028E6
:1011E00011D10EE044F008040DE044F010040AE0D0
:1011F00044F0200407E044F0400404E044F080049C
:1012000001E044F480742868816921F070018161F3
:10121000296804204860002C05D0686A2043686271
:101220002846FFF789FEBDE8F09F70B5040003D0A3
:1012300094F8200010B104E0012070BD204600F0B9
:1012400081F82068016841F00101016000F08AFA2C
:101250000546052604E000F085FA401B0A2811D84F
:1012600020684068C007F6D02068016821F00201BC
:10127000016000F077FA05460BE000F073FA401BBE
:101280000A2806D9606A40F40030606284F8206061
:10129000D2E7206840688007EFD4207E01282068CC
:1012A00001683DD021F080010160607E0128206846
:1012B000016838D021F040010160A07E012820683B
:1012C000016833D021F020010160E07E0128206810
:1012D00001682ED041F010010160207F01282068B4
:1012E000016829D021F008010160607F0128206891
:1012F000016824D021F004010160D4E9020108430F
:10130000D4E90412114308436168491E0843216867
:10131000C86100206062012084F82000002070BDB8
:1013200041F08001C0E741F04001C5E741F02001F4
:10133000CAE721F01001CFE741F00801D4E741F0FE
:101340000401D9E710B586B0002100910191029106
:1013500003910068174988422AD11748C16941F0B2
:101360000071C161C16901F000710491816941F0AE
:10137000040181618069114C00F0040004904FF475
:10138000006000906946204600F0F2F8A01400903A
:1013900002200190032003906946204600F0E8F8FF
:1013A00000220521142000F07BFA142000F06AFAD4
:1013B00006B010BD0064004000100240000801406B
:1013C0007047000070B5154B154AA3F11C040021AD
:1013D0006068FFF7B2FD1249A1F110008A6812B1EE
:1013E000042A02D003E00A6800E04A680260CA6882
:1013F000002A11D1097C01710021084A03E0535CE5
:101400004518491C6B7103798B42F8DCA068BDE874
:101410007040002103F019B870BD0000A800002042
:10142000741B0020704770477047000070B5044679
:1014300090F82000012804D0606A40F40020606227
:1014400018E0022084F820002068016821F00101E2
:10145000016000F087F905460EE000BF00F082F958
:10146000401B0A2808D9606A40F4003060620520F9
:1014700084F82000012070BD20684068C007EDD1CD
:10148000606270BD70477047704770477047704723
:10149000704710B590F821100022022905D00421D0
:1014A000816380F82020012010BD01680B6823F0C3
:1014B0000E030B6001680B6823F001030B6090F8CA
:1014C0004030C46B012101FA03F3636080F82110FE
:1014D00080F82020104610BD10B590F8211000248F
:1014E000022903D00421816301243DE001680A68D8
:1014F00022F00E020A6001680A6822F001020A6006
:101500001A4A0168914201D1012121E0174A14329F
:10151000914201D110211BE0144A2832914201D19D
:10152000891515E0114A3C32914201D189140FE02E
:101530000E4A5032914202D14FF4803108E00B4AFA
:101540006432914202D14FF4801101E04FF080717A
:10155000064A083A5160012180F82110002180F8E4
:101560002010416B01B18847204610BD08000240A1
:101570002DE9F84FDFF8B8910024A9F1040B2346B8
:101580000F2709F1040AABF1040EC9E00125A540BB
:101590002A40AA427DD1674ED1F804C0ACEB0608C0
:1015A000B44532D014DCBCF1030F3AD009DCBCF1F5
:1015B000000F2AD0BCF1010F1CD0BCF1020F31D1B9
:1015C0001DE0BCF1110F17D0BCF1120F2AD119E0A8
:1015D000B8F5881F19D006DCB8F5803F15D0B8F5EE
:1015E000801F1FD111E0B8F5001F0ED0B8F5041F01
:1015F00018D10AE0CB6815E0CB681B1D12E0CB6860
:1016000008330FE0CB680C330CE08B682BB1012B57
:101610004FF0080303D0456104E0042302E00561B4
:1016200000E00023FF2A01D8064601E000F104068D
:101630004FEA840501D9A5F12005D6F8008007FA04
:1016400005FC28EA0C0803FA05F548EA0508C6F87F
:1016500000804D68ED0062D5374DAE6946F0010659
:10166000AE61AD6924F0030605F001050095334D28
:1016700006EB050CDCF80850A607360F07FA06F84B
:1016800025EA0805DFF8B880404503D14FF000088F
:1016900017E044E0DFF8AC80404502D14FF001088C
:1016A0000FE0DFF8A480404502D14FF0020808E0C7
:1016B000DFF89880404502D14FF0030801E04FF079
:1016C000040808FA06F848EA0508CCF808804D68CE
:1016D000D9F80060ED024D4601D5164300E096436F
:1016E0002E604D68DAF80060AD02554601D516430C
:1016F00000E096432E604D68DBF80060AD035D4668
:1017000001D5164300E096432E604D68DEF8006078
:10171000ED03754601D5164300E096432E60641C28
:101720000D682A46E5407FF431AFBDE8F88F000030
:1017300008040140000011100010024000000140A8
:1017400000080140000C014000100140001401405D
:101750008068084000D0012070470AB101617047DD
:101760000904FBE70148806870470000040000207E
:1017700002488168027811448160704704000020AB
:10178000074810B5016841F010010160032000F026
:10179000A7F80F2000F006F800F050F8002010BD68
:1017A0000020024030B505461F4887B0C16941F0AE
:1017B0000401C161C06906A900F00400009001A8FD
:1017C00000F0FEF90498B0B100F01AFA4000174991
:1017D000174AB0FBF1F11748491E0260416040F220
:1017E000E7320021C0E903218160816100F0E0FB64
:1017F000040003D015E000F003FAE8E70D4800F01C
:1018000005FC04000DD11E2000F03CF8102D07D27D
:10181000002229461E2000F043F80748056000E03A
:10182000012407B0204630BD0010024040420F00A6
:1018300000080040F4010020080000200F4808B50F
:10184000816941F001018161816901F0010100912B
:10185000C16941F08051C161C069002200F080502F
:1018600000900F21901E00F01BF80548416821F000
:10187000E06141F00071416008BD000000100240CD
:1018800000000140002809DB00F01F020121914007
:101890004009800000F1E020C0F80011704700000E
:1018A000F0B40E4B1B680C46C3F30223C3F10705CB
:1018B000042D00D90425191D072901D2002300E0B9
:1018C000DB1E012606FA05F1491E214099409E4083
:1018D000761E16403143F0BC01F0E2BB0CED00E097
:1018E000064900F0070208684FF6FF03184040EA77
:1018F0000220034A10430860704700000CED00E02E
:101900000000FA0510B501460020234C012922D021
:10191000022939D010291DD161682268D20119D558
:101920001E48C1F38342C903805C0AD561681B4A23
:10193000C1F34041921E515C194AB2FBF1F1484398
:1019400001E0184948436168490203D4400003217B
:10195000B0FBF1F010BD226AC2F30121012903D1CD
:10196000920701D5C80310BD022905D1626A92070A
:1019700002D549F6404010BD0329FCD121688903F6
:10198000F9D54FF2244010BD00F04AF96168C1F367
:101990008131491C4900DBE700100240AC500008CF
:1019A00000127A0000093D002DE9F8430546007851
:1019B000354CC00754D0E0690026C00008D4E06967
:1019C00040F08050E061E069012600F08050009016
:1019D0002E480168C90512D40168804641F480711F
:1019E0000160FFF7BFFE074605E000BFFFF7BAFE44
:1019F000C01B642823D8D8F80000C005F6D5206A9B
:101A000010F4407021D0A98801F4407181421CD0AB
:101A1000206A1F49012220F440700A6000220A60F7
:101A20002062C00711D0FFF79DFE074641F28838BB
:101A300008E000BFFFF796FEC11B414502D9032015
:101A4000BDE8F883206A8007F4D5206A696820F42D
:101A50004070084320621EB1E06920F08050E061D0
:101A60002878800705D56068A96820F440400843BD
:101A700060602878C00605D56068E96820F48000B9
:101A8000084360600020DBE7001002400070004067
:101A9000400442422DE9F0470F46050061D0434E15
:101AA000306800F00700B84209D2306820F0070023
:101AB00038433060306800F00700B84251D12868E0
:101AC0003B4C810712D5400703D5606840F4E060C5
:101AD00060602878000703D5606840F4605060605B
:101AE0006068A96820F0F000084360602878C007AB
:101AF00028D06868012810D02168022810D08907F2
:101B000000292EDA616821F0030101436160FFF7CB
:101B100029FE804641F288390DE021688903EFE70C
:101B20008901EDE7FFF71EFEA0EB0801494502D948
:101B30000320BDE8F0876068696800F00C00B0EB36
:101B4000810FEFD1306800F00700B8420BD9306840
:101B500020F0070038433060306800F00700B842DA
:101B600001D00120E5E72878400705D56068E968DD
:101B700020F4E060084360602878000706D56068BC
:101B8000296920F4605040EAC100606000F058F814
:101B90006168084AC1F30311515CC84006490860F6
:101BA00006480068FFF7FEFD0020C2E70020024063
:101BB00000100240BC500008100000200800002067
:101BC0000F2202600C4A536803F00303436053681A
:101BD00003F0F0038360536803F4E063C36052686A
:101BE0004FF4E06303EAD20202610448006800F0A7
:101BF000070008607047000000100240002002400B
:101C00000448054900684968044AC1F30221515C4F
:101C1000C84070471000002000100240CC5000085F
:101C20000448054900684968044AC1F3C221515C6F
:101C3000C84070471000002000100240CC5000083F
:101C40000E4A51680E4801F00C03042B11D0082BEA
:101C50000FD10C48C1F38343C903C05C0AD5516856
:101C6000084AC1F34041921E515C054A5043B0FB03
:101C7000F1F07047044948437047000000100240EB
:101C800000127A009A50000800093D002DE9F84F33
:101C9000040070D02078C04DC00749D06868C0F3F8
:101CA0008100012807D06868C0F38100022809D1AB
:101CB0006868C00306D52868800339D560680028A5
:101CC000E7D035E06068B0F5803F0BD010B1B0F5DB
:101CD000A02F11D0286820F480302860286820F4D4
:101CE000802002E0286840F480302860606890B16D
:101CF000FFF738FD06460AE0286840F48020286097
:101D0000F0E700BFFFF72EFD801B642873D828681A
:101D10008003F7D50CE0FFF725FD064605E000BF80
:101D2000FFF720FD801B6428F0D828688003F7D4D3
:101D300020789A4E80074FF001094FF0000839D5FE
:101D4000686810F00C0F07D06868C0F381000228A3
:101D500009D16868C00306D42868800714D52069B3
:101D6000012808D110E02069B0B1C6F80090FFF753
:101D7000F9FC074605E00AE1FFF7F4FCC01B022866
:101D8000C4D828688007F7D52868616920F0F80072
:101D900040EAC10028600DE0C6F80080FFF7E2FCD1
:101DA000074604E0FFF7DEFCC01B022823D82868A2
:101DB0008007F7D4207800072CD57948A169D9B1DC
:101DC000C0F80090FFF7CEFC074604E0FFF7CAFC1E
:101DD000C01B02280FD8686A8007F7D571484FF4F6
:101DE000FA510068B0FBF1F0009000BF0098411E6E
:101DF0000091FAD20EE080E0C0F80080FFF7B2FC5C
:101E0000074604E0FFF7AEFCC01B022875D8686ADD
:101E10008007F7D42078400760D5E8690027C00024
:101E200008D4E86940F08050E861E869012700F0D3
:101E3000805000905C480168C90513D4016883464E
:101E400041F480710160FFF78DFC824606E000BF1F
:101E5000FFF788FCA0EB0A0064284ED8DBF80000EE
:101E6000C005F5D5E06801280AD008B1052813D0CF
:101E7000286A20F001002862286A20F0040002E0AD
:101E8000286A40F001002862E06841F2883B98B17E
:101E9000FFF768FC82460BE0286A40F004002862E5
:101EA000EEE700BFFFF75EFCA0EB0A0159455AD8E8
:101EB000286A8007F6D50CE0FFF754FC824605E05F
:101EC000FFF750FCA0EB0A0159454CD8286A80075F
:101ED000F6D41FB1E86920F08050E861E06988B36A
:101EE0006968C1F38101022944D00228C6F86080E4
:101EF00004D0FFF737FC044638E034E0FFF732FC4B
:101F0000074604E0FFF72EFCC01B02282BD82868E8
:101F10008001F7D4206AB0F5803F05D16868A168D8
:101F200020F4003008436860D4E908010843696878
:101F300021F4741108436860C6F86090FFF712FC42
:101F4000044606E025E000BFFFF70CFC001B02285A
:101F500009D828688001F7D51BE000BFFFF702FC15
:101F6000001B022802D90320BDE8F88F28688001F1
:101F7000F4D40EE00128F7D06868226A00F48031BA
:101F8000914204D1616A00F47010884201D00120AE
:101F9000EAE70020E8E700000010024000004242AB
:101FA00080044242100000200070004070477047DB
:101FB00010B5040003D094F83D0010B107E00120F3
:101FC00010BD002084F83C00204600F01EF80220DE
:101FD00084F83D00211D206800F0B4FE012084F843
:101FE000460084F83E0084F83F0084F8400084F8FE
:101FF000410084F8420084F8430084F8440084F8E7
:10200000450084F83D00002010BD704790F83D1059
:10201000012901D001207047022180F83D1001689C
:10202000CA6842F00102CA6000680B49884208D0C1
:10203000B0F1804F05D00949884202D00849884252
:1020400004D1816801F00701062903D0016841F03D
:102050000101016000207047002C01400004004095
:1020600000080040704770B50446006801694FF0F1
:102070000005C943890715D4C168C943890711D42C
:10208000E91E0161012020772068806980072046D1
:1020900002D0FFF7E7FF04E000F098F8204600F0D8
:1020A00096F8257720680169C943490717D4C168A4
:1020B000C943490713D46FF004010161022020775E
:1020C0002068806910F4407F204602D0FFF7CAFFE5
:1020D00004E000F07BF8204600F079F825772068CE
:1020E0000169C943090716D4C168C943090712D455
:1020F0006FF008010161042020772068C069800723
:10210000204602D0FFF7AEFF04E000F05FF8204663
:1021100000F05DF8257720680169C943C90617D426
:10212000C168C943C90613D46FF0100101610820CA
:1021300020772068C06910F4407F204602D0FFF766
:1021400091FF04E000F042F8204600F040F82577C7
:1021500020680169C943C90708D1C168C943C907D3
:1021600004D1891E0161204600F032F8206801691F
:10217000C943090609D4C168C943090605D46FF0EB
:10218000800101612046FFF711FF20680169C94302
:10219000490609D4C168C943490605D46FF0400116
:1021A0000161204600F01EF820680169C9438906D4
:1021B0000BD4C168C943890607D46FF020010161BF
:1021C0002046BDE87040FFF7F2BE70BD7047704713
:1021D00000680349884201D1FFF7CABA704700007E
:1021E000000800407047704770470000F8B501686C
:1021F00004460868CA684B6910F00F0F4FF00005DD
:1022000059D003F0010602F49077374365D0C10737
:1022100005D0D10503D5616C41F00101616441072E
:1022200005D5D90703D0616C41F0020161648107D3
:1022300005D5D90703D0616C41F004016164010741
:1022400007D502F02001314303D0616C41F0080151
:102250006164616C00293AD0800604D5900602D5ED
:10226000204600F0D4FD20684069616CC0F3801006
:10227000090700D460B3204600F0A2FD2068406941
:10228000400621D52068143050E8001F21F040019D
:1022900040E80012002AF5D1E06BA8B16D49416316
:1022A000E06BFFF719F9002811D0E06B416B01B02A
:1022B000BDE8F040084783060FD593060DD52046AC
:1022C000BDE8F84000F0A3BD2046FFF78DFFF8BD44
:1022D0002046FFF789FF6564F8BD266B2023012E99
:1022E0007CD1C6067AD5D60678D5086848680090AD
:1022F00048694FF00206400640D5E16B0868406827
:102300000004000CE8D0A28D8242E5D9E0858869FE
:1023100020282DD020680C3050E8001F21F4807157
:1023200040E80012002AF5D12068143050E8001F60
:1023300021F0010140E80012002AF5D12068143094
:1023400050E8001F21F0400140E80012002AF5D1BA
:1023500084F84230256320680C3050E8001F21F0DB
:10236000100140E80012002AF5D1E06BFFF791F868
:102370006663A08DE18D401A81B22AE0A08DE18DC7
:10238000401A81B2E08D0028A6D00029A4D022688E
:102390000C3252E8000F20F4907042E80007002F42
:1023A000F5D12068143050E8002F22F0010240E8F7
:1023B0000027002FF5D184F84230256320680C30C7
:1023C00050E8002F22F0100240E80023002BF5D146
:1023D00066632046FFF707FFF8BDFFE705062BD52C
:1023E000150629D594F841002128F5D1A068B0F54B
:1023F000805F01D12069B0B1206A411C216221684F
:1024000000784860E08C401E0004000CE084E3D1BA
:102410002068C16821F08001C1602068C16841F076
:102420004001C160D8E7206A0088C0F30800486016
:10243000206A801C2062E5E74006CDD55006CBD54A
:10244000CA68204622F04002CA6084F8413000F099
:1024500009F9C1E7B12D000870B5040004D094F863
:102460004100002510B106E0012070BD84F8405005
:10247000204600F023F8242084F841002068C16839
:1024800021F40051C160204600F022FD206801695E
:1024900021F4904101612068416921F02A014161E4
:1024A0002068C16841F40051C1606564202084F84F
:1024B000410084F842006563002070BD70B586B0AD
:1024C000002400940194029403942E4E03682E4934
:1024D000022003222D4DB34226D18B6943F4804361
:1024E0008B618B6903F4804304938B6943F004038D
:1024F0008B618969039201F0040104910102CDE925
:10250000001069462846FFF733F82815CDE9000486
:10251000694628460294FFF72BF800220521252062
:10252000FFF7BEF9252028E0194EB34227D1CB6929
:1025300043F40033CB61CB6903F4003304938B691C
:1025400043F004038B618969039201F00401049153
:102550000421CDE9001069462846FFF709F8082054
:10256000CDE90004694628460294FFF701F80022ED
:1025700005212620FFF794F92620FFF783F906B0FE
:1025800070BD00000038014000100240000801400A
:102590000044004090F84230202B01D002207047C8
:1025A00021B11AB10023036300F0EEBC0120704793
:1025B00070B50546006818490026184C884210D1AD
:1025C000174A608821781154401C80B260800C2822
:1025D00001D300F007FD2670012210491148FFF7D2
:1025E000D9FF11492868884214D10D4AE0880C327D
:1025F00061781154401C80B2E0800C2801D300F0B7
:10260000FFFC6670BDE8704004490122491C074880
:10261000FFF7C0BF70BD000000380140D8000020A7
:10262000DC2D00206401002000440040AC010020AB
:1026300090F84130202B01D00220704779B172B15F
:1026400001628284C28400214164212180F841100A
:102650000068C16841F08001C1600020704701201E
:102660007047000070B504460848094D844203D104
:102670000021A86901F0E9FE0648844205D1E86915
:10268000BDE87040002101F0E0BE70BD6401002093
:10269000D8000020AC010020FEE7000010B5084C77
:1026A0006068FEF7C3FE002202210A2001F017FD38
:1026B000E060002210210A2001F011FD206110BD10
:1026C0008C00002000F042FAC82001F071FB4FF4AA
:1026D0007A7908232C4A4946012000F0A0FCDFF853
:1026E000A880294C00254FF0FF3AA8F10C08A4F16E
:1026F00009060627244952460939D8F8080001F08E
:10270000FBFE307878B1A770E7702571657100F035
:10271000AFFCA07108231C4A4946012000F07FFC51
:102720000A2001F045FB707890B10428A77025D0ED
:102730001221E1702571657100F0A0F9A0710823E4
:10274000114A4946012000F06AFC0A2001F030FBE2
:10275000B0780028CED0A7701421E1702571022135
:10276000617100F071FCA0710823074A49460120FD
:1027700000F055FC0A2001F01BFBBBE71620E070BF
:1027800025716571A571DAE7040100203EB51824B2
:10279000054B0094CDE901300B46042203A1044807
:1027A00002F073F83EBD0000F42D00204D503300C0
:1027B000C52600083EB500241148009401940294F7
:1027C0000E498460016004730475012505614FF4AE
:1027D00060214460C161FEF78FF908B1FEF79BF8F4
:1027E0000620CDE90005694602940548FEF702F986
:1027F000002801D0FEF78FF83EBD00000024014004
:102800000C0100200F4810B50D4901600421416002
:1028100000214FF480228160C0E90312D20042619E
:102820000176417681760122C27601774177FEF703
:10283000FCFC002803D0BDE81040FEF76CB810BDCA
:10284000006400403C01002010B5054A0021054805
:1028500000F0A0FC04490860BDE8104000F076B824
:1028600074500008392C000800000020F0B585B035
:10287000002418480094019402940394816941F063
:1028800020018161816901F020010491816941F099
:10289000040181618069104F00F00400049001225E
:1028A00003213846FEF759FF0125022603960095BD
:1028B000CDE9015469463846FEF75AFE0320CDE9BA
:1028C0000240CDE9006569463846FEF751FE05B085
:1028D000F0BD000000100240000801400C4810B597
:1028E0000A4901604FF416514160002181600C22B9
:1028F000C160C0E904128161C161FFF7ADFD00282C
:1029000003D0BDE81040FEF706B810BD0038014006
:10291000640100200C4810B50A4901604FF4E13110
:102920004160002181600C22C160C0E90412816114
:10293000C161FFF791FD002803D0BDE81040FDF70D
:10294000EABF10BD00440040AC01002010B5FFF705
:10295000A5FE00F0DFF800F0EDF800F07DFB18496F
:10296000A1F12800FDF75DFE15480321016140F249
:10297000231101601348FEF717FA114B4FF48074CE
:10298000A3F6F451224601F65C40FDF7A3FE0E4982
:10299000224601F6B800FDF72FFE0C49224601F24F
:1029A0001450FDF7F9FE0A49224601F5805000F067
:1029B0004FF803480021BDE810408438FFF7E6BE19
:1029C000842D00200C01002090230020902700205F
:1029D000901B002008B5022001F07DFB1B4CE0613C
:1029E00000F0FAF8E06000F0F1F8206100F0FAF889
:1029F000A06100F0FDF86061E169206901F05AFB17
:102A0000D4E9060101F056FB0026012700968DF857
:102A100001708DF800608DF8026000231A46694647
:102A2000606901F0F7FB0021E06901F001FE054655
:102A30002069854201D100F0E1F8A069854201D109
:102A400000F0EAF8C82001F0B3F9DFE7B000002099
:102A50000EB51823CDE900310290002302A10548EC
:102A600001F013FF0EBD00006D61696E5F6D6F6454
:102A700000000000D5290008FEE700000F49020011
:102A800048780ED00123012A09D0022A0AD0032A4D
:102A900007D1401E10F0FF0048700BD00CE04B70C7
:102AA00018467047401CC0B24870072800D94B70C8
:102AB0004878704707204870C0B27047F80000207F
:102AC00010B5124CE06868B1A28861888A4207D1CB
:102AD00031B100231A460E4901F09CFB00F082FA46
:102AE0006088A080206900280ED02289E1888A426F
:102AF00008D139B1064900231A460C3101F08AFB8E
:102B000000F07EFAE088208110BD0000D80000208F
:102B1000DC2D002010B50548FDF700FF002208213C
:102B2000012001F0DCFA0249086010BD0C01002010
:102B3000D000002010B500220221012001F0CFFAC0
:102B40000149086010BD0000D400002038B5002203
:102B50000C210A2001F0C3FA154C03220021E06089
:102B6000012001F0BCFA00231A461946A06101F0C9
:102B700051FB012221460F48FFF70CFD0A2001F00E
:102B800017F96069002812D10B4800900023012238
:102B90000A210AA002F032F8606101F0AFFE02469D
:102BA0006420009000230121606902F071F838BDB3
:102BB000D800002064010020C12A0008557361720A
:102BC000745F54696D650000FEE70000014800680D
:102BD00070470000D00000200148006970470000E5
:102BE0008C0000200148006870470000D4000020DD
:102BF0000148806870470000F80000201CB5054CB3
:102C000000226946206901F077FC00986060019815
:102C1000A0601CBDB000002038B5064C00226946FB
:102C2000A06901F069FC9DF8000020709DF801008A
:102C3000607038BDB00000200A2001F0B9F8FBE751
:102C400070B5044606480D461146806901F0FAFC4D
:102C5000AAB22146BDE870400248FFF7E9BC000077
:102C6000D80000206401002070B5044606480D46D7
:102C70001146C06901F0E6FCAAB22146BDE87040E9
:102C80000248FFF7D5BC0000D8000020AC010020AE
:102C900010B5502080F31188BFF34F8FBFF36F8FB3
:102CA00001F032FE18B104494FF080500860002056
:102CB00080F3118810BD000004ED00E030B593B042
:102CC00028216846FDF719FB14210AA8FDF715FB1A
:102CD000002501200F9510951195010412958DE89E
:102CE000230004904FF4E010CDE90810022407946B
:102CF0006846FEF7CBFF08B172B6FEE70AA90F20BF
:102D000081E831004FF48060CDE90D0502210AA869
:102D1000FEF7C0FE08B172B6FEE74FF40040119016
:102D20000F940FA8FEF740FE002801D072B6FEE710
:102D300013B030BD704700000148FFF794B90000A0
:102D4000F4010020F0B50268164B174C174D4FF0F8
:102D50008047984205D0B84203D0A04201D0A84293
:102D600003D122F070064A683243984205D0B84237
:102D700003D0A04201D0A84203D122F44074CA6813
:102D800022434C6922F08002224302608A68C262B8
:102D90000A688262984201D1096901630121416197
:102DA000F0BD0000002C014000040040000800407D
:102DB00010B5406A0021C185C184FFF715FA10BD26
:102DC00001680C3151E8002F22F4907241E8002391
:102DD000002BF5D10168143151E8002F22F00102D7
:102DE00041E80023002BF5D1016B012909D10168CD
:102DF0000C3151E8002F22F0100241E80023002B93
:102E0000F5D1202180F8421000210163704708B5F8
:102E100090F84210222901D0022008BD82684FF4A8
:102E200080539A4201D1016921B1816A9A421BD033
:102E30004AB10AE00268816A5268C2F308020A8055
:102E4000816A891C08E0026972B10268526802F066
:102E50007F020A70816A491C8162C18D491E090482
:102E6000090CC18503D01BE002685268F1E70168D4
:102E7000CA6822F02002CA600168CA6822F480721F
:102E8000CA6001684A6922F001024A61202180F883
:102E9000421000214163026B012A03D0FFF788FB37
:102EA000002008BD016301680C3151E8002F22F0B9
:102EB000100241E80023002BF5D101680A68D20610
:102EC00002D50A6849680091818DFFF78CF9E7E720
:102ED00070B5044600680169E26821F4405111436D
:102EE00001612169A0680843616908432168CA68D3
:102EF00041F20C639A430243CA6020684169A269A7
:102F000021F44071114341611E492068884202D179
:102F1000FEF786FE01E0FEF773FE00EBC00101EB59
:102F20000012606864218000B2FBF0F3B3FBF1F3A0
:102F30006FF018067343B2FBF0F5B2FBF0F605EB49
:102F40008305322303EB0515B5FBF1F5B6FBF1F66E
:102F500005F0F00505EB0615B2FBF0F6B2FBF0F05C
:102F6000B0FBF1F06FF01802504306EB800003EB6A
:102F70000010B0FBF1F0216800F00F0028448860D9
:102F800070BD00000038014081628285C285002149
:102F90004164222180F84210016921B10168CA68A8
:102FA00042F48072CA6001684A6942F001024A61D3
:102FB0000068C16841F02001C16000207047000036
:102FC0000148FFF713B90000640100200148FFF732
:102FD0000DB90000AC0100200148FEF728B8000040
:102FE0003C0100200449002048808880034908648F
:102FF0004864886470470000D80000209C2D0020A1
:1030000004490020C88008810349C86408654865F0
:1030100070470000D80000209C2D0020FEE730B44F
:103020001446012807D002280BD120460A4630BC9E
:103030001946FFF719BE20460A4630BC1946FFF76D
:10304000FFBD30BC70470000024900B1887088782D
:1030500070470000F800002010B5002204210A206B
:1030600001F03DF80149886010BD0000F800002023
:103070000A49020008780BD0012A0AD0022A07D197
:10308000801CC0B208701E2801D91E200870C0B272
:103090007047801EC0B2087070470000F800002022
:1030A0000907090E002804DB00F1E02080F8001475
:1030B000704700F00F0000F1E02080F8141D704709
:1030C00030B54FF0E02300215D6900EBC0009A6944
:1030D000C40098699042FCD002D2A2EB000203E047
:1030E000A0EB0202A5EB020211440246A142F0D37A
:1030F00030BDFEF745FBFFF7E1FDFFF7B7FBFFF73C
:1031000081FBFFF7EBFBFFF755FBFFF703FC00F03C
:1031100005F8FFF799FB00F01DF8FEE7EFF30580D7
:1031200058B9EFF3108040B909490868022801D066
:1031300030B109E0EFF3118030B16FF00500704756
:1031400001200860002070474FF0FF3070470000FA
:103150006400002010B5EFF3058060B9EFF3108034
:1031600048B90B490868022802D0012806D00BE0B4
:10317000EFF3118040B16FF0050010BD0220086030
:1031800000F0C6FE002010BD4FF0FF3010BD000063
:1031900064000020F0B585B04FEA01034FF0000451
:1031A000EFF305810394A1BBEFF3108189BB2149A3
:1031B0000968022902D1EFF3118151BB48B380267F
:1031C00018218DF8104004AD42B3176807B13D4691
:1031D00097691FB139467F1E382F02D21779FF0732
:1031E00002D0002005B0F0BD576907B1BE08D2F883
:1031F00008C0BCF1000F0DD0D4685C2C18D3126944
:103200003AB137B18DE806103246294601F03DFB50
:1032100003900DE0D7685FB912694AB903AACDE9F6
:103220000012B2B2294601F003FB012800D003943A
:103230000398D7E7640000202DE9F041134C0F46B6
:10324000054666692068001D00F082FC681C07D1F5
:1032500037B12168BDE8F0410D48091D00F0C8BC38
:1032600020683544B5424560216805D2A068BDE8B4
:10327000F041091D00F0A4BC6068091D00F0A0FC2D
:10328000206B854200D22563BDE8F0811400002048
:103290002C0700202DE9F041054600F0B5FC2D4C2F
:1032A0002069401C206120682B4F10B1E06930B3C9
:1032B0002BE025602069012827D1002606EB860037
:1032C00007EB800000F06EFC761C382EF6D3234806
:1032D00000F068FC2148143000F064FC1F482830DE
:1032E00000F060FC1D483C3000F05CFC1B48503096
:1032F00000F058FC194860601430A06005E02068B8
:10330000E96AC06A884200D82560E06A401CE06231
:103310006864E86AA169884200D9A06100EB800076
:1033200007EB8000291D00F063FC00F08DFCE069D4
:1033300000280CD02068E96AC06A884207D2084990
:103340004FF080500860BFF34F8FBFF36F8FBDE821
:10335000F0810000140000207C020020DC06002028
:1033600004ED00E038B500F04FFC104CA068C8B97F
:103370000F4800F017FC0E48143000F013FC0C4806
:103380002060143060600A4B00202833009003F165
:10339000540210210A2000F0C6FEA06010B105A161
:1033A00000F0D0FCBDE8384000F04EBC50000020DA
:1033B00040070020546D72510000000030B4026CD0
:1033C0000B46002A0BD0C1681144C1604468A14279
:1033D00001D30168C16030BC1846FCF741BF30BC66
:1033E00070472DE9F041856B174604460026026CB4
:1033F00082B1C7B1E068FCF733FFE168206C091ABD
:10340000E1602268914202D26168081AE060022FEE
:1034100016D017E02068A8B9606801F0D9FA06460E
:10342000002060600EE0A068FCF71AFF216CA06825
:103430000844A0606168884204D32068A06001E06D
:1034400005B16D1E6D1CA5633046BDE8F08110B559
:10345000044690F8590058B101280CD002280FD02A
:10346000502080F31188BFF34F8FBFF36F8FFEE7BB
:10347000206B00F0FDFB2046BDE8104000F0F8BBDB
:1034800010BD000010484FF44061420706D0C01D37
:103490000D4920F00700411AC1F540610B4A002395
:1034A0000144C2E900030839103A21F00701116014
:1034B0004B600B600B1AC0E9001393604FF00040A3
:1034C0005360D06070470000140F00207800002087
:1034D000144E154CA6F29C474FF08058DFF84C90E4
:1034E00012E000BF00F090FBF068C568281D00F0F6
:1034F0002FFB2069401E2061E068401EE06000F064
:10350000A3FB2846FFF7A3FFE0680028EAD138684C
:103510000128F9D9C9F80080BFF34F8FBFF36F8F2F
:10352000F2E70000180700201400002004ED00E07E
:1035300070B51D46049C61B1C4F80020C4E90F01B8
:103540000121204600F022FE84F850500020A064A3
:1035500070BD2460F2E72DE9F0470E46DDE90984ED
:103560001746824691009946089DA522206BFCF7DC
:10357000BCFE6FF00301206B01EB8701084420F0D3
:103580000707780707D0502080F31188BFF34F8FCB
:10359000BFF36F8FFEE72218315C82F83410315C84
:1035A00011B1401C1028F6D3002684F84360382D52
:1035B00000D33725E562C4E91356201D00F0FDFA5B
:1035C00004F1180000F0F9FA2461C5F138006462D2
:1035D000A061666584F858604A465146384600F056
:1035E000A5FA2060B8F1000F01D0C8F80040BDE88E
:1035F000F0872DE9F0471E46DDE9089417460D00D7
:1036000080460ED0002C14D0FFF7ACFEC4F800802A
:10361000C4E90657C4E90869201DBDE8F04700F079
:10362000CCBA502080F31188BFF34F8FBFF36F8F58
:10363000FEE7BDE8F087000030B5114900E0114613
:103640000A688242FBD34B685C18844203D140680D
:1036500018444860084643681C18944209D1084C35
:10366000103C2468A24209D052681A4442600A6899
:1036700012680260814200D0086030BD0460F9E742
:103680007800002070B5002441600B4D006191422C
:1036900006D8D11A8269914206D2011D686807E0F6
:1036A0009A4203D2994201D3012403E0011D286804
:1036B00000F086FA204670BD5000002010B5044688
:1036C00000F0A2FAA06B28B15FF0000400F0BCFA91
:1036D000204610BD0124F9E773B500260098846CDC
:1036E0005CB1A26BE06B82420FD3502080F3118853
:1036F000BFF34F8FBFF36F8FFEE7502080F3118829
:10370000BFF34F8FBFF36F8FFEE7A26B82420CD2E5
:1037100094F945500A4669462046FFF762FE064680
:10372000681C04D06D1C84F8455030467CBD606A2E
:103730000028FAD004F1240001F0C6F90028F4D0E2
:103740000126F2E730B589B0304D55E004980028E5
:1037500006DADDE90601059A9047049800284BDB5C
:10376000069C606910B1201D00F0F2F902A800F07B
:10377000B9F8024604980A283ED2DFE800F00505B1
:10378000053D263705053D260598A16903460144F8
:103790002046FFF777FF00B3616A20468847E0695B
:1037A000012829D1002000900598A1690023421822
:1037B0001946204601F06CFA78B9502080F3118840
:1037C000BFF34F8FBFF36F8FFEE70598A06128B15D
:1037D000811813462046FFF755FF0DE0502080F377
:1037E0001188BFF34F8FBFF36F8FFEE794F82C0063
:1037F00010B9204600F03CFA002204A9A86800F0A5
:103800007BFE0028A2D109B030BD0000500000208E
:103810002DE9FC410F46054600F0BEFB01A800F073
:1038200061F80446019818B101F086F9BDE8FC8101
:10383000224EAFB170680068A8B30027291B3A4632
:10384000B06800F093FA01F077F90028EED11C4936
:103850004FF080500860BFF34F8FBFF36F8FE5E7E5
:10386000A542EBD801F068F930682746C068C46803
:10387000201D00F06DF9E069012810D1A0692B46E8
:1038800041193A462046FFF7FDFE40B100200346AD
:10389000014600902A46204601F0FAF920B1616AFB
:1038A00020468847C2E707E0502080F31188BFF325
:1038B0004F8FBFF36F8FFEE70127BFE75000002057
:1038C00004ED00E006484168096829B14168C9680B
:1038D000C9684968016370474FF0FF31FAE700009B
:1038E0001400002070B5054601F008F8064E0446A5
:1038F0003069844203D200F009F8012000E0002082
:1039000028602046346170BD50000020F8B5194D84
:103910001FE0C068C4680668201D00F019F9616ADC
:1039200020468847E069012813D1A0693044B0429D
:1039300006D924616060211D286800F041F908E083
:1039400000200346014600903246204601F0A0F9CF
:1039500038B1286801680029DBD16968C5E9001021
:10396000F8BD502080F31188BFF34F8FBFF36F8FE6
:10397000FEE700005000002008484068401C4FF05F
:10398000500080F3118804D0BFF34F8FBFF36F8FC7
:10399000FEE7BFF34F8FBFF36F8FFEE7800000207D
:1039A000074C2068016841B1C0680021D0F80000D0
:1039B000FFF72EFFFFF7C6FEF3E701210020F7E730
:1039C000500000202DE9F041044600F01DF994F963
:1039D000455004F1240610E0A06C20B100212046DF
:1039E000FFF77AFE04E0606A48B1304601F06CF8F7
:1039F00008B100F00BFA6D1E6DB2002DECDC4FF03B
:103A0000FF3684F8456000F01FF900F0FDF894F9E6
:103A1000445004F1100709E0206948B1384601F02C
:103A200053F808B100F0F2F96D1E6DB2002DF3DC11
:103A300084F84460BDE8F04100F006B92DE9F0419A
:103A40000546002700F0A8FA314E306808B9FFF7A4
:103A500019FDF06805424BD1C5B3083568070ED093
:103A600005F00700C0F108000544680707D05020A2
:103A700080F31188BFF34F8FBFF36F8FFEE72DB335
:103A80007068854234D82248103001460C6801E045
:103A900020460C466168A94202D221680029F7D16C
:103AA00031688C4224D0076821680160606808375B
:103AB000411B10290FD96019420708D0502080F30C
:103AC0001188BFF34F8FBFF36F8FFEE710E04160A7
:103AD0006560FFF7B1FD61687068401A7060B26898
:103AE000904200D2B060F06801430020C4E90001B8
:103AF00001F022F8780707D0502080F31188BFF337
:103B00004F8FBFF36F8FFEE73846BDE8F0810000AE
:103B1000680000200449086818B10868026D521C4A
:103B200002650868704700001400002010B5031FEC
:103B30004FF080741C601B1F21F001011960191FD8
:103B4000024B0B60143940380A6010BD7939000807
:103B5000D0E9013201699A60D0E901235A604A68CC
:103B6000824201D182684A60002202610868401ED8
:103B70000860086870470000034B036003F15C00B5
:103B800008608020106070475C080020044B0360D0
:103B900003F15C0008604FF4807010607047000013
:103BA000B80A002000F108014FF0FF32C0E901120D
:103BB000C16001610021016070470021016170470F
:103BC00030B50B685A1C02D000F1080202E002690D
:103BD00004E02246546825689D42FAD953684B6038
:103BE00099608A60516008610168491C016030BDBC
:103BF00042684A6093688B6093685960916008617D
:103C00000168491C01607047502080F31188BFF3A0
:103C10004F8FBFF36F8F0A494868401C48600128E6
:103C20000CD10848006810F0FF0F07D0502080F337
:103C30001188BFF34F8FBFF36F8FFEE7704700000F
:103C40008000002004ED00E00849486828B1401ECB
:103C5000486001D180F311887047502080F31188AB
:103C6000BFF34F8FBFF36F8FFEE70000800000208F
:103C700070B5002827D0144DA0F108046168E868E9
:103C8000014207D1502080F31188BFF34F8FBFF35B
:103C90006F8FFEE722683AB1502080F31188BFF39E
:103CA0004F8FBFF36F8FFEE78143616000F074F9BF
:103CB00060686968084468602046FFF7BDFCBDE89D
:103CC000704000F039BF70BD680000204FF0E02068
:103CD00000210161816105494FF47A720968B1FBE5
:103CE000F2F1491E41610721016170471000002077
:103CF00010B5FCF791FA114910280ED300F1E0201D
:103D000090F8F0030A78904207D2502080F311888F
:103D1000BFF34F8FBFF36F8FFEE7094800688968D4
:103D200000F4E060884207D9502080F31188BFF387
:103D30004F8FBFF36F8FFEE710BD000080000020A3
:103D40000CED00E010B5084B002200BF53F83240E4
:103D50001CB1521C082AF9D310BD43F8321003EBF2
:103D6000C201486010BD00003C02002070B515463D
:103D70000E460446FFF748FF94F944100020491C02
:103D800001D184F8440094F94510491C01D184F80C
:103D90004500FFF759FFA06B28B92A46314604F1C8
:103DA000240000F051F82046BDE87040FFF70ABE3D
:103DB00010B5020014D00F48806B38B1502080F34A
:103DC0001188BFF34F8FBFF36F8FFEE700F0E4F869
:103DD00000211046FFF730FA00F0AEFE002807D1B0
:103DE00005494FF080500860BFF34F8FBFF36F8FCE
:103DF00010BD00001400002004ED00E002498A6AB2
:103E000002604969416070471400002001490120A7
:103E1000486270471400002010B50C4650B10949A3
:103E200009681831FFF7CCFE2046BDE8104001219B
:103E3000FFF702BA502080F31188BFF34F8FBFF312
:103E40006F8FFEE71400002070B514460D4668B170
:103E50000A4909681831FFF7CBFE0CB14FF0FF3566
:103E600021462846BDE87040FFF7E6B9502080F3B0
:103E70001188BFF34F8FBFF36F8FFEE71400002050
:103E800070B504003ED0226DA2B1E06C884200D330
:103E90000146E06A884235D0012A33D11A4D2A689A
:103EA00094420FD1502080F31188BFF34F8FBFF39E
:103EB0006F8FFEE7502080F31188BFF34F8FBFF361
:103EC0006F8FFEE7E162A269002A02DBC1F13801CF
:103ED000A1610E4E00EB8000616906EB800081421B
:103EE00010D1201DFFF734FEE06AA969884200D98D
:103EF000A86100EB800006EB8000211DBDE870404A
:103F0000FFF776BE70BD0000140000207C02002088
:103F100030B587B00024039405AA04A903A804942B
:103F2000FFF72AFEDDE903010094CDE9011000232B
:103F300015A11748059A00F0A8FC164D00286863E3
:103F40001FD000F075FE012809D0401C19D1502067
:103F500080F31188BFF34F8FBFF36F8FFEE75020C0
:103F600080F31188BFF34F8FBFF36F8F4FF0FF3097
:103F700028630120E8616C6107B0BDE8304000F0C3
:103F800045B807B030BD000049444C450000000072
:103F9000D1340008140000200248816B491C816361
:103FA0007047000014000020164810B5816B11B155
:103FB0000121416210BD002141628169124A01E084
:103FC000B9B1491E01EB810352F82330002BF7D021
:103FD00001EB810302EB830202F1080453685B6882
:103FE0005360A34201D15B685360DA68026081616B
:103FF00010BD502080F31188BFF34F8FBFF36F8F38
:10400000FEE70000140000207C0200201CB52649B9
:1040100008780190FF20087008788DF800009DF85E
:1040200000009DF8002000F0F000904207D05020E2
:1040300080F31188BFF34F8FBFF36F8FFEE79DF8BA
:1040400000001A4B00F0500018700720986005E03F
:104050009DF8002052008DF80020401E9DF80020A1
:104060001206F5D49860032807D0502080F31188F9
:10407000BFF34F8FBFF36F8FFEE74FF44070986030
:10408000019808700A48016841F4700101600168F4
:1040900041F070410160FFF719FE00205860FCF705
:1040A00085F800201CBD000000E400E08000002036
:1040B00020ED00E070B50D460446FFF7A5FDA06CAD
:1040C00008B9A06B08B1002401E0A5640124FFF742
:1040D000BBFD204670BD00220421AFF30080F8B57F
:1040E00017460E46050014D0DEB105FB06F054302D
:1040F000FFF7A4FC04000AD0002084F8460004F175
:1041000054023B46314628460094FFF711FA2046F8
:10411000F8BD502080F31188BFF34F8FBFF36F8F2E
:10412000FEE70020E3E738B5049D18B153B1CAB1EA
:1041300081B120E0502080F31188BFF34F8FBFF38F
:104140006F8FFEE7502080F31188BFF34F8FBFF3CE
:104150006F8FFEE7502080F31188BFF34F8FBFF3BE
:104160006F8FFEE739B1502080F31188BFF34F8F76
:10417000BFF36F8FFEE754241C46012384F84630BA
:104180002B460094FFF7D4F9204638BD70B50D4694
:10419000040025D0FFF738FDD4E90F20216802FB89
:1041A000001161600021A1632168A1600A46D4E981
:1041B0000F01401E00FB0121E16021464FF0FF305E
:1041C00001F8440F487004F110008DB1FFF7EAFCCC
:1041D00004F12400FFF7E6FCFFF736FD012070BD77
:1041E000502080F31188BFF34F8FBFF36F8FFEE72E
:1041F00021690029F0D000F067FC0028ECD00449C8
:104200004FF080500860BFF34F8FBFF36F8FE3E72D
:1042100004ED00E02DE9FF4782B01D468A464FF0CD
:104220000008040003D0BAF1000F08D011E05020BC
:1042300080F31188BFF34F8FBFF36F8FFEE7206CC1
:1042400038B1502080F31188BFF34F8FBFF36F8FC9
:10425000FEE7022D0AD1E06B012807D0502080F341
:104260001188BFF34F8FBFF36F8FFEE700F038FB6D
:10427000424F4FF000094FF0805648B9049838B1CA
:10428000502080F31188BFF34F8FBFF36F8FFEE78D
:10429000FFF7BAFCA06BE16B884207D3022D05D073
:1042A000049808B3B8F1000F21D025E02A46514602
:1042B0002046FFF796F8A16C21B129462046FFF76A
:1042C0000BFA05E0616A19B104F1240000F0FCFB6F
:1042D00020B13E60BFF34F8FBFF36F8FFFF7B4FC89
:1042E000012006B0BDE8F087FFF7AEFC22E068468B
:1042F000FFF784FD4FF00108FFF7A6FCFFF74CFE27
:10430000FFF782FC94F94400401C01D184F84490EA
:1043100094F94500401C01D184F84590FFF794FCC6
:1043200004A9684600F04AFA30B12046FFF74AFB7C
:1043300000F002FC0020D4E7FFF766FCA06BE16B05
:10434000884213D1FFF780FC04F110000499FFF7B5
:1043500063FD2046FFF736FB00F0EEFB002897D107
:104360003E60BFF34F8FBFF36F8F91E7FFF76CFC99
:104370002046FFF727FB00F0DFFB89E704ED00E0B4
:104380002DE9F047984617468946040003D0B9F155
:10439000000F08D011E0502080F31188BFF34F8F39
:1043A000BFF36F8FFEE7206C38B1502080F3118887
:1043B000BFF34F8FBFF36F8FFEE7B8F1020F0AD143
:1043C000E06B012807D0502080F31188BFF34F8F96
:1043D000BFF36F8FFEE7FFF78BFC5020EFF31186E2
:1043E00080F31188BFF34F8FBFF36F8FA06BE16B2A
:1043F000884207D3B8F1020F04D0002086F3118859
:10440000BDE8F08794F94550424649462046FEF7FC
:10441000E8FF681C04D06D1C84F845500120EDE7CE
:10442000A06C012520B141462046FFF755F906E072
:10443000606A0028F2D004F1240000F045FB002857
:10444000ECD0002FEAD03D60E8E72DE9F0410E46C0
:10445000040009D0206C78B1502080F31188BFF39C
:104460004F8FBFF36F8FFEE7502080F31188BFF3AB
:104470004F8FBFF36F8FFEE7206848B9606838B18F
:10448000502080F31188BFF34F8FBFF36F8FFEE78B
:10449000FFF72EFC5020EFF3118580F31188BFF356
:1044A0004F8FBFF36F8FA16BE06B88421FD994F9D8
:1044B0004500491CA163411C04D0401C84F8450000
:1044C000012015E0A06C012720B100212046FFF754
:1044D00003F906E0606A0028F2D004F1240000F03D
:1044E000F3FA0028ECD0002EEAD03760E8E700208D
:1044F00085F31188BDE8F0812DE9F747002683B0E8
:104500008A46040003D0BAF1000F08D011E0502011
:1045100080F31188BFF34F8FBFF36F8FFEE7206CDE
:1045200038B1502080F31188BFF34F8FBFF36F8FE6
:10453000FEE700F0D5F9DFF8F4804FF000094FF006
:10454000805748B9059838B1502080F31188BFF3DF
:104550004F8FBFF36F8FFEE7FFF756FBA56BC5B11B
:1045600051462046FEF72AFF6D1EA563206950B113
:1045700004F1100000F0A8FA28B1C8F80070BFF3E9
:104580004F8FBFF36F8FFFF75FFB012006B0BDE8D1
:10459000F087059808B11EB106E0FFF755FB27E04C
:1045A0006846FFF72BFC0126FFF74EFBFFF7F4FCF4
:1045B000FFF72AFB94F94400401C01D184F8449091
:1045C00094F94500401C01D184F84590FFF73CFB6D
:1045D00005A9684600F0F2F8002820460AD0FFF747
:1045E000F1F900F0A9FA2046FFF768F80028B3D0E7
:1045F0000020CBE7FFF762F890B104F124000599A1
:10460000FFF70AFC2046FFF7DDF900F095FA0028D5
:10461000A2D1C8F80070BFF34F8FBFF36F8F9BE735
:104620002046FFF7CFF900F087FA95E704ED00E0A8
:1046300008B5002200920A466946FFF75DFF009820
:1046400008BD00002DE9F343002683B00400354681
:1046500009D0206C78B1502080F31188BFF34F8FC0
:10466000BFF36F8FFEE7502080F31188BFF34F8FA9
:10467000BFF36F8FFEE700F033F9DFF83C814FF0B6
:1046800000094FF0805748B9049838B1502080F3A2
:104690001188BFF34F8FBFF36F8FFEE7FFF7B4FAB8
:1046A000A06BC8B1401EA063206810B9FFF732FAB2
:1046B0006060206950B104F1100000F005FA28B1E3
:1046C000C8F80070BFF34F8FBFF36F8FFFF7BCFACE
:1046D000012005B0BDE8F083049808B166B10FE091
:1046E0003DB1502080F31188BFF34F8FBFF36F8F20
:1046F000FEE7FFF7A9FA5DE06846FFF77FFB0126BA
:10470000FFF7A2FAFFF748FCFFF77EFA94F944009E
:10471000401C01D184F8449094F94500401C01D11B
:1047200084F84590FFF790FA04A9684600F046F82F
:104730000028204612D0FFF745F900F0FDF9204689
:10474000FEF7BCFF0028A9D09DB3FFF75DFA606AB1
:1047500050B3206B0068C0F1380126E0FEF7AEFFD1
:10476000E0B1206838B9FFF74FFA606800F070F9DF
:104770000546FFF769FA04F124000499FFF74CFBA2
:104780002046FFF71FF900F0D7F9002886D1C8F8B6
:104790000070BFF34F8FBFF36F8F7FE72046FFF7A7
:1047A00011F900F0C9F979E700216068FFF768FBAB
:1047B0009FE7FFE700208CE704ED00E02DE9F041E2
:1047C0000C46050011D0C4B1FFF71EFA174B5A6909
:1047D0006E682068911B471C17D02F689B6A9F4208
:1047E00019D0964217D8012410E0502080F3118888
:1047F000BFF34F8FBFF36F8FFEE7502080F3118818
:10480000BFF34F8FBFF36F8FFEE70024FFF71CFA53
:104810002046BDE8F081884205D9401A206028462C
:10482000FFF7ECFAF1E700202060DCE7140000203D
:104830002DE9FF5F8346DDE90E87994616468A46D5
:104840009000FFF7FBF805001CD05C20FFF7F6F89E
:10485000040014D00020256384F85900CDE90240FB
:10486000CDE900874B46324651465846FEF773FE67
:104870002046FEF70FFD012004B0BDE8F09F28465A
:10488000FFF7F6F94FF0FF30F6E7F0B585B0DDE958
:104890000B640A9DA6B1DCB15C2700972663022653
:1048A00084F85960002604AFCDE90246CDE90057EF
:1048B000FEF751FE2046FEF7EDFC049805B0F0BD72
:1048C000502080F31188BFF34F8FBFF36F8FFEE747
:1048D000502080F31188BFF34F8FBFF36F8FFEE737
:1048E0000548C16919B1806B18B1002070470120DB
:1048F0007047022070470000140000200148406902
:1049000070470000140000202DE9F0412E4C0027D4
:10491000A06B40B1206A401C2062606A00B1012790
:104920003846BDE8F0816669761C666113D160681F
:10493000006838B1502080F31188BFF34F8FBFF368
:104940006F8FFEE76068A1686160A060A06A401C8C
:10495000A062FEF7B7FF206BDFF87080864209D3B4
:104960006068006880B16068C068C5686868864231
:104970000DD220632068C06A00EB800158F8210046
:104980000128CAD90127C8E74FF0FF30F1E7281DF9
:10499000FFF7DEF8A86A18B105F11800FFF7D8F89C
:1049A000E86AA169884200D9A06100EB800108EBA8
:1049B0008100291DFFF71CF9E86A2168C96A88424D
:1049C000CED30127CCE70000140000207C02002099
:1049D00070B504004FF0000133D01B4D28688442AD
:1049E00007D0502080F31188BFF34F8FBFF36F8F34
:1049F000FEE7206D38B1401E2065E36CE26A9A4202
:104A00001FD040B11DE0502080F31188BFF34F8FBD
:104A1000BFF36F8FFEE7201DFFF79AF8E06CE062AE
:104A2000C0F13800A061E06AA969884200D9A86194
:104A3000064900EB800001EB8000211DFFF7D8F84C
:104A40000121084670BD0000140000207C020020F7
:104A500070B504004FF000002BD0194DE16A2A68B0
:104A6000D26A914226D2A069002804DB2868C06A75
:104A7000C0F13800A061134E01EB8101606906EBC3
:104A80008101884211D1201DFFF762F82868C06AB1
:104A9000E062A969884200D9A86100EB800006EBBA
:104AA0008000211DFFF7A4F802E02868C06AE062D8
:104AB000012070BDE16C2A68D26A9142F8D370BDC2
:104AC000140000207C02002070B5C068C46854B196
:104AD00004F118000646FFF73BF8144DA86B50B1DF
:104AE0003146134815E0502080F31188BFF34F8FF3
:104AF000BFF36F8FFEE7201DFFF72AF8E06AA96970
:104B0000884200D9A8610B4900EB800001EB8000CE
:104B1000211DFFF76DF8E06A2968C96A884202D949
:104B20000120686270BD002070BD000014000020EC
:104B3000040700207C0200202DE9F0472C4D0024C2
:104B40002746A86B38B1FFF75FF8A86B401EA86333
:104B5000A86B40B146E0502080F31188BFF34F8F1F
:104B6000BFF36F8FFEE72969224E0120D1B3A6F56E
:104B7000916980463068E0B1F068C46804F11800BB
:104B8000FEF7E6FF201DFEF7E3FFE06AA969884211
:104B900000D9A86100EB800109EB8100211DFFF71E
:104BA00027F8E06A2968C96A8842E3D3C5F82480F7
:104BB000E0E70CB1FEF786FE2C6A4CB14FEA08061E
:104BC000FFF7A2FE00B16E62641EF9D100202862D8
:104BD000686A38B10849012738070860BFF34F8F6A
:104BE000BFF36F8FFFF730F83846BDE8F08700005D
:104BF000140000200407002004ED00E02DE9FC472C
:104C000081461E461746884630200A9DFEF716FF4D
:104C100004000AD0CDE9005433463A46414648469E
:104C2000FEF7E7FC002084F82C002046BDE8FC8756
:104C300010B586B0FEF796FB114CA068B8B1002005
:104C40000390049005AA04A903A8FEF79FFFDDE9DD
:104C5000032102208DE8070000230AA10B48059AD2
:104C6000FFF713FEE06010B106B0012010BD502028
:104C700080F31188BFF34F8FBFF36F8FFEE7000003
:104C800050000020546D722053766300A139000853
:104C90002DE9FF411E46134602000A9D4FF0000019
:104CA00016D0144CA768002F0FD0CDE90013029244
:104CB000062917DAFFF714FE02284FF000030FD081
:104CC00000226946A068FFF7A5FA04B0BDE8F081AC
:104CD000502080F31188BFF34F8FBFF36F8FFEE733
:104CE0002A46EEE70023324669463846FFF748FB7E
:104CF000EBE700005000002021F00042A2F16052DA
:104D0000B2F5801F01F0004328BFD2F17F6C0BD9B0
:104D10005FEA001C43EAC20242EB507018BF7047C2
:104D200028BF20F001007047B2F5801FBCBF1846B5
:104D300070474FEA410C1CF5001F02D2084600F0F4
:104D400023B970B500F0C6F800000089FFF7F6BF80
:104D50004FF00040A0F580007047B0FA80F310FAE1
:104D600003F10AD0C3F11D0303F580634FEA4150FC
:104D70004FEA035202EBD12170474FF00000704719
:104D8000DFF848C170B51CEA111E1EBF1CEA1315DE
:104D90009EEA0C0F95EA0C0F00F06F8081EA030485
:104DA00023EA4C134EEAD47E21EA4C1141F48011DF
:104DB00043F48013AE44A1FB024CA0FB0365AEF1AB
:104DC0007F7E361955EB0C05A1FB034C4CF100031B
:104DD000A0FB021C16EB0C06654153F100030942CF
:104DE00018BF46F0010613F4007F0BD14FEA0331E0
:104DF0004FEA0530340341EA155140EA16506FF08E
:104E000003020AE04FEAC3214FEAC520F40241EA57
:104E1000555140EA56506FF0020202EB2E4201EB70
:104E2000025585EACE710AD05FEA440C18BF24F01F
:104E3000004450F1000041F1000120EAD47040F23A
:104E4000FE7C624500D270BDA84214BF4FF0804482
:104E50004FF04044002E08BF0024BEF1806FA8BF71
:104E6000A1F1C041BDE8704080F282804FF00000A7
:104E700001F1C04101F0004170479EEA0C0F0CEABD
:104E8000131518BF95EA0C0F06D04FF0000081EA09
:104E9000030E0EF0004170BD00F01CF88900013EC9
:104EA00000F007B800F009B84FEA430C5FEA5C5C19
:104EB00008D081EA030100F05BB84FEA410C5FEAD9
:104EC0005C5CF6D14FF00000014970470000FF071D
:104ED0000000F87F0EF1020E2EF0030E5EF8046B58
:104EE000364205D4012A43EB030515F5001F12D8FD
:104EF000012841EB010C1CF5001F0CD80ED14FEA24
:104F0000D17C15F5001F0CEB4C0C0CF1020C08BF0A
:104F10004CEBD37C04E04FF0080C01E04FEAD37C6B
:104F20000CEB4C0526FA05F606F00706B6F1040C64
:104F300006D20EEB860CBDE870404CF0010C6047C9
:104F4000DFE80CF0090B02024FF000414FF00000C7
:104F5000A1F5002170BD19461046012851EB01044E
:104F600018BFD4F5001484BF002001F0004170BDCB
:104F70000808A0F500114FEA31017047014800F020
:104F800008B800BF0000C07FFF2141EAD050C00533
:104F900070470CF00F03092B08BF082000F0518068
:104FA0000A2B0BD0082B18BF704708BF1CF0400F0E
:104FB0000AD04FF000004FF0000170471CF0400F86
:104FC00018BF4FF0004070471CF0100F08D020F0C1
:104FD000704300F07F4242EAD3014FEA43707047CA
:104FE00000F0604021F07F4242EA000201F07F4081
:104FF00040EA727070474FF0FF0212EAD0521CBFB5
:1050000092F0FF038B42C2BFD14200EBC150704708
:10501000002A0AD0002B0BD0002900F00040A4BFCA
:1050200040F0FE4040F40000704700F00040704740
:1050300043024FF00B0C18BF4CF0806C7FF49EAF16
:1050400070471CF4801F11D01CF4E02F03D06FEACE
:10505000CC31490070474FF04050EFF3008222F00E
:10506000704242EA000282F3008870474FF000006D
:1050700070470000D450000800000000000000004D
:105080000000000000000000000200001800000006
:1050900000000000000000000102020304050607F2
:1050A00008090A0B0C0D0E0F101001020203040573
:1050B000060708090A0B0C0D0E0F10100000000067
:1050C00000000000010203040607080900000000B8
:1050D0000102030464656661756C745461736B004E
:1050E00000510008000000200C0100002801000809
:1050F0000C5200080C0100204C350000440100084F
:10510000000000000100000010000000000000008E
:105110000024F40000000000000000000000000077
:10512000000000000000000000000000000000007F
:10513000000000000000000000000000000000006F
:10514000000000000000000000000000000000005F
:10515000000000000000000000000000000000004F
:10516000000000000000000000000000000000003F
:10517000000000000000000000000000000000002F
:1051800000000000AAAAAAAA000000000000000077
:105190003C010020000000000000000000000000B2
:1051A00000000000000000000000000000000000FF
:1051B00000000000000000000000000000000000EF
:1051C00000000000000000000000000000000000DF
:1051D00000000000000000000000000000000000CF
:1051E00000000000000000000000000000000000BF
:1051F00000000000000000000801010000000000A5
:0C520000000000007EFF0606000008EF22
:04000005080000ED02
:00000001FF
